S01A000052656E657361735F4375705F56315F305F302E73726563AE
S3150200000020070022B93F0002B13D0002C93F0002AB
S31502000010C93F0002C93F0002C93F0002C93F0002B0
S31502000020000000000000000000000000C93F0002BE
S31502000030C93F000200000000C93F0002C93F00029A
S31502000040D12A0002592D0002192F00026130000246
S31502000050A11B0002A921000229220002F9220002A4
S31102000060D132000259330002B133000213
S315020000703D500000AAAA3200FFFFFF0008304200EE
S315020000800331130003310300003000000430FF0087
S3150200009002301C000630C3000E3045002E30080028
S315020000A0343018001F50000000433200183600009A
S315020000B012362900093752000C3703002038400057
S315020000C0213801003036360031360E003236E20073
S315020000D0333612002136E0000437A00003375A00F7
S315020000E015377800173701000B37600005371A00FD
S315020000F0053902000639100001390A0031371200AB
S3150200010000360800013633002D30600020365200DA
S315020001101B3720001C475000133A4300183A0000D0
S31502000120193AF800353613003636030034364000E5
S3150200013022360100014002000440020005401A0076
S315020001400150A30003350700003500000135FF000A
S31502000150023500000A3500000B3520000F3A300048
S31502000160103A28001B3A30001E3A2600113A600067
S315020001701F3A1400183A0000193A7C0006340000AF
S315020001800034070001347000023404000334000016
S31502000190043405000534C00080540100815408006F
S315020001A082541400835428008454510085546500F7
S315020001B08654710087547D008854870089549100C3
S315020001C08A549A008B54AA008C54B8008D54CD00E0
S315020001D08E54DD008F54EA0090541D0080550600AF
S315020001E08355400084551000895510008A55000039
S315020001F08B55F800005823000158140002580F00CE
S3150200020003580F00045812000558260006580C0021
S315020002100758080008580500095805000A5808003A
S315020002200B580D000C5808000D5803000E5800001C
S315020002300F58000010580300115809001258070001
S3150200024013580300145800001558010016580300ED
S315020002501758080018580D00195808001A580500B2
S315020002601B5806001C5808001D580E001E5829006F
S315020002701F58170020581100215811002258150046
S3150200028023582800245846002558260026580800D8
S315020002902758260028586400295826002A58240080
S315020002A02B5822002C5824002D5824002E580600C4
S315020002B02F5822003058400031584200325824004C
S315020002C03358260034582400355822003658220066
S315020002D03758260038584400395824003A58260020
S315020002E03B5828003C5842003D58CE000050A7001B
S315020002F02038400021380600143831001538310004
S315020003000338040008380300093820000A380100BF
S315020003100B38E0000C462200374810002438020051
S315020003200150A3003D50000041470000FFFFFF00BF
S3150200033000000800000000000000000000000000AD
S31502000340000010080000000000000000000000008D
S307020003500101A1
S315020003602DE9F04381B040F24C761546C2F20026E2
S31502000370884607463378532B36D0A821304604F0F8
S3150200038018F803203061706144F6583040F2F47177
S31502000390C0F20020B061C2F20021F1614FF4806127
S315020003A031620021B1627162F16240F6F432306666
S315020003B04FF0100E44F20470C2F200227266C6F8C2
S315020003C068E03167F1667167BFF35F8FC0F20020A4
S315020003D00F30314600BF00BF10F8012901F8012B8A
S315020003E00FF007C0BFF35F8F07EB470006EBC000B5
S315020003F000F16009C76E046FBC4213D9D9E9010145
S31502000400091BA94251EA358601194046324603F0D4
S31502000410D5FF3019D9F80810411AB04450EA1184B0
S31502000420AD1B00E00026381BA84250EA358545B1CF
S31502000430D9F804002A460119404603F0BFFF2E44AC
S315020004402C44002E304618BFC9F8104001B0BDE852
S31502000450F083D4D4D4D4D4D410B50B46EFF311849C
S315020004604FF0200181F311881946FFF779FF84F3D3
S31502000470118810BDD4D4D4D42DE9F04381B000EB59
S31502000480400040F24C73C2F20023154603EBC00350
S31502000490894603F11808D86A022817D001280CD019
S315020004A048B9D8F80C40D8F81000E143A04264D904
S315020004B00844A84267D2002686E0D8F80C40D8F84D
S315020004C01000E143A04230D9084432E0D8F80C408B
S315020004D0002623E000BF00BFD8F8082008441044D5
S315020004E0D8E90112121B904250EA3280A84250EA21
S315020004F03587081949463A4603F060FF3819D8F895
S315020005000810411AA5EB070550EA11843E44B94486
S31502000510002DBFF35F8FC8F80C4055D0D8F81000F5
S31502000520E143A042D8D90844DAE7D8F808200844BB
S315020005301044D8E90112A84250EA3586151B08195B
S31502000540AE4209D24946324603F038FFBFF35F8F07
S315020005503019C8F80C0037E049462A4603F02EFF48
S31502000560771BD8F8040009EB05013A4603F026FF8B
S31502000570BFF35F8FC8F80C7026E0D8F8082008444D
S315020005801044A84297D3D8E901010E1B2044B54274
S3150200059009D249462A4603F011FFBFF35F8F60195D
S315020005A0C8F80C000FE04946324603F007FFAF1BBE
S315020005B0D8F8040009EB06013A4603F0FFFEBFF342
S315020005C05F8FC8F80C702E46304601B0BDE8F08346
S315020005D0F0B581B040F24C750C46C2F200252B787C
S315020005E0532B37D00646A8212846174603F0E1FECC
S315020005F003202861686144F6583040F2F471C0F273
S315020006000020A861C2F20021E9614FF480612962EB
S315020006100021A9626962E96240F6F43228664FF067
S31502000620100E44F20470C2F200226A66C5F868E04F
S315020006302967E9666967BFF35F8FC0F200200F3052
S3150200064010F8011905F8011B0FF007C03A463046AB
S31502000650BFF35F8FEFF311854FF0200181F311880D
S315020006602146FFF709FF85F3118801B0F0BDD4D406
S3150200067000EB400040F24C71C2F2002101EBC000D7
S31502000680C16E006F081A70472DE9F04F9BB0904675
S315020006900F464FF0000A4FF0FF3B16AD06A9169122
S315020006A04021179103901A900592CDE918AA08E005
S315020006B0CDF860A000BF00BF1998B0F1FF3F40F32C
S315020006C0358217F8010B25281ED0002800F02E824D
S315020006D0DDE917314A1C9A4205D8169B58541892DE
S315020006E0199801301990DDE917028242E4D1169970
S315020006F01A98FFF76DFF18998842D9D0CDF864B0E1
S31502000700DAE700BF00BF00BF4FF0000902E0013781
S31502000710002008BB3878A0F1230101200D29F8D862
S31502000720DFE801F00E0D0D0D0D0D0D0D110D0A0D6B
S315020007300D1400BF00BF00BF49F00109E7E7E8E773
S3150200074049F00809E3E749F00409E0E749F002093C
S31502000750DDE700BF00BF00BF3978A1F13A0010F112
S315020007600A0F01D2002011E000200A4600BF00BF96
S3150200077017F8011F00EB8000A1F13A0302EB4000DB
S3150200078013F10B0FA0F130000A46F1D82E290FD132
S315020007903A4612F8011F2A290DD1D8F8001002375D
S315020007A00A1DC8F800200C68012121E000BF00BF25
S315020007B0002100241CE01178A1F13A0313F10A0F7B
S315020007C002D20021002412E0002400BF00BF00BFB5
S315020007D012F8013F04EB8407A3F13A0601EB470145
S315020007E016F10B0FA1F130041946F1D80121174673
S315020007F017F8012B02F0FB03682BF9D0A2F158037C
S31502000800202B1BD8DFE803F012111111111111115F
S315020008101111113546111111111111111111111167
S315020008207D11118C11271111120045E7D8F800101D
S315020008300A1DC8F800200968102213E0252A7FF451
S315020008403BAFDDE91720411C91423FF64CAF169AA9
S31502000850252313541CE0D8F800100A1DC8F80020FE
S3150200086009680A22CDE900092846234600F070F9F4
S3150200087022E7DDE91730411CD8F80020994202F13F
S315020008800403C8F800303FF62EAF169B12681A54BE
S31502000890189125E7D8F800104CF6CD460A1DC8F87F
S315020008A00020D1F80080CCF6CC46C8F100014246C1
S315020008B0B8F1000F48BF0A460A2A04914FF0010117
S315020008C00ADB00BF00BF00BFA2FB0635632A01F1A7
S315020008D001014FEAD502F7D88C4254EA818A4FF0D9
S315020008E0FF35002855D0B8F1000F5FEA5F9109F095
S315020008F0040241EA9201A0EB010B5FEA89764DD42C
S3150200090070E0D8F800001022011DC8F80010016836
S3150200091008230820CDE9000A284600F019F9CBE69B
S31502000920D8F80000021DC8F80020006844F66212DA
S315020009300028C0F2002250EA12865FEA018506E02C
S31502000940CDF860A01998013CB0F1FF3F1FDD16F803
S31502000950010B002C5FEA1581C8B1C1B9DDE9173177
S315020009604A1C9A4205D8169B585418921998013077
S315020009701990DDE917028242E4D116991A98FFF717
S3150200098027FE18998842DBD0CDF864B0DAE716ADB7
S3150200099092E64FF0000B5FEA897623D514BB1998CD
S315020009A000284FD4B8F1FF3F53DD5FEA49706FD597
S315020009B0DDE91720411C914206D8169A2B231354BF
S315020009C01891199801301990DDE9170282425FD118
S315020009D016991A98FFF7FCFD1899884257D10020FC
S315020009E0189055E05FEAC970D9D1BBF1000F0BD15F
S315020009F0D5E700BF00BF00BF002018901998ABF1E1
S31502000A00010BB0F1FF3FCADDBBF1000FC7D0DA45DB
S31502000A10C5D2DDE91720411C914206D8169A202339
S31502000A2013541891199801301990DDE91702824280
S31502000A30E4D116991A98FFF7CBFD18998842DBD0B4
S31502000A401995DBE74FF0000AAB4616ADDDF81480C8
S31502000A5032E6DDE91720411C914206D8169A2D236B
S31502000A6013541891199801301990DDE91702DDF82F
S31502000A701480824210D116991A98FFF7A9FD189987
S31502000A80884202D10020189006E0199504E01995D3
S31502000A90CDF81080DDF814801998002812D4002EA3
S31502000AA015D4199800280DD416AE0A223046049998
S31502000AB02346CDE900B900F04BF84FF0000AAB46E9
S31502000AC03546F9E54FF0000AAB4616ADF4E509F0F6
S31502000AD001002043E5D1BBF1000F09D1E1E700BFD8
S31502000AE0002018901998ABF1010BB0F1FF3FD8DD49
S31502000AF0BBF1000FD5D0DA45D3D2DDE91720411C70
S31502000B00914206D8169A3023135418911998013037
S31502000B101990DDE917028242E4D116991A98FFF775
S31502000B2057FD18998842DBD01995DBE719980128F9
S31502000B3009DB189A1AB106A90398FFF749FDDDE900
S31502000B4018010844199019981BB0BDE8F08FD4D447
S31502000B502DE9F04F81B015468B4691421F46044659
S31502000B60DDF828904FF0010007D3594600BF00BFB9
S31502000B70B1FBF5F10130A942FAD2874257EA8088E1
S31502000B80B9F1000F0B9935D011F0010032D1880767
S31502000B904FF0200048BF30202021002F50EA018666
S31502000BA04FF0FF3A08E000BF0020A060E068A9F11C
S31502000BB00109B0F1FF3F1DDDB9F1000F1AD0C8459A
S31502000BC018D2D4E90120411C914205D82268165454
S31502000BD0A160E0680130E060D4E901028242E5D119
S31502000BE021682069FFF7F4FCA1688842DCD0C4F8CA
S31502000BF00CA0DBE7E068002841D4012602E000BF32
S31502000C00013F6E43022FFBD2BBFBF6F0A842F8D29D
S31502000C1045F25047C0F20027D4E90120BBFBF6FAA1
S31502000C20411C914207D8226817F80A301354A16072
S31502000C30E0680130E060D4E9010282420FD1216806
S31502000C402069FFF7C5FCA168884205D10020A06093
S31502000C5005E000BF00BF00BF4FF0FF30E060E06874
S31502000C60002806D4B6FBF5F00AFB16BBB5420646CB
S31502000C70D2D90B98C00718BFB9F1000F02D101B043
S31502000C80BDE8F08F4FF0000A4FF0FF362027A9F19A
S31502000C9001054D4538BFC845F1D2D4E90120411CB2
S31502000CA0914205D822681754A160E0680130E060DD
S31502000CB0D4E9010282420AD121682069FFF788FC41
S31502000CC0A168884202D1C4F808A000E0E660E068A4
S31502000CD0A946B0F1FF3FDADCD1E7D4D4D4D4D4D4D8
S31502000CE082B080B582B0CDE9042304AA019201AA9A
S31502000CF0FFF7CAFC02B0BDE8804002B07047D4D408
S31502000D002DE9F04381B044F6691944F67F38861C12
S31502000D104AF6AA274FF6FF74C0F200290DF1030521
S31502000D20C0F2002800218DF8031007E000BF00BFC3
S31502000D3030784FF47A7102F0F7FF043636F8020C77
S31502000D40B842F5D0A0420DD0317800F079FA68B9F0
S31502000D5036F8020C294600F017FA0028EDD00446B0
S31502000D60C14604E0002001B0BDE8F083044644F623
S31502000D70613144F63D12C0F20021C0F20022002089
S31502000D804B46FFF7ADFF204601B0BDE8F083D4D451
S31502000D90F0B581B02DED048B0A204FF47A7102F082
S31502000DA0C3FF40F60C503C21C2F20020012201F0A2
S31502000DB067FC28B144F685530446C0F2002337E1A6
S31502000DC040F6B455EFF31080C2F20025012181F3FB
S31502000DD0108840F614542968C4F2400419B9002157
S31502000DE021704021217029684FF6D04601312960D1
S31502000DF0CFF6FF7680F3108843F6FA770121CFF615
S31502000E00FE77A05938400430A051EFF3108081F3E9
S31502000E101088296811B1296801392960296819B928
S31502000E20002121708021217080F3108814204FF454
S31502000E307A7102F079FF0121EFF3108081F31088B5
S31502000E40296819B9002121704021217029680131D0
S31502000E50296080F310880121A059384040F005002E
S31502000E60A051EFF3108081F31088296811B1296827
S31502000E7001392960296819B9002121708021217060
S31502000E8080F3108814204FF47A7102F04DFF40F27D
S31502000E903C00C2F20020FFF733FF28B144F6C0132C
S31502000EA00446C0F20023C3E032204FF47A7102F006
S31502000EB03BFF43F23500122100F0C2F968B144F655
S31502000EC0613144F6704244F624030446C0F200211E
S31502000ED0C0F20022C0F200233AE043F236007B2140
S31502000EE000F0AEF968B144F6613144F6704244F25C
S31502000EF0BA730446C0F20021C0F20022C0F20023F7
S31502000F0026E043F23700082100F09AF968B144F668
S31502000F10613144F6704244F642430446C0F200216F
S31502000F20C0F20022C0F2002312E043F2081012219E
S31502000F3000F086F9A8B144F6613144F6704244F6EF
S31502000F40BE330446C0F20021C0F20022C0F20023E2
S31502000F500020FFF7C5FE84B144F26573C0F2002398
S31502000F6066E040F608404DF60001C2F20020002479
S31502000F70C0F2B8510160002CEED140F608409FED58
S31502000F80351AC2F20020B6EE008A90ED000A43F648
S31502000F900C00B8EE400A80EE010A9FED2F1A80EE91
S31502000FA0010AB1EEC09AB0EE480A09EE010ABCEE99
S31502000FB0C00A10EE105A290A00F042F9B8B9E9B28D
S31502000FC043F60D0000F03CF988B939EE080A43F6FB
S31502000FD00E00BCEEC00A10EE105A290A00F030F9D3
S31502000FE028B9E9B243F60F0000F02AF9A8B144F68F
S31502000FF0613144F6A02244F688430446C0F2002139
S31502001000C0F20022C0F200230020FFF769FE3CB1C5
S3150200101044F62243C0F200230AE00024002CF7D152
S3150200102000F01EF8A0B144F66F230446C0F2002376
S3150200103044F6613144F60702C0F20021C0F20022F2
S315020010400020FFF74DFE2046BDEC048B01B0F0BD3B
S315020010500024F8E700007042ABAAAA3FD4D4D4D445
S3150200106010B582B00DF1070144F6140000F08CF8B9
S3150200107028B144F6B7530446C0F200230FE09DF8A8
S31502001080070000F03F0144F614008DF8071000F047
S31502001090D7F890B144F688430446C0F2002344F6DA
S315020010A0613144F6A142C0F20021C0F200220020C2
S315020010B0FFF716FE204602B010BD002002B010BD9A
S315020010C010B543F20800022100F0BAF828B144F63E
S315020010D0EB230446C0F200230AE044F20220002178
S315020010E000F0AEF888B144F6E3430446C0F20023AA
S315020010F044F6613144F65F42C0F20021C0F200229A
S315020011000020FFF7EDFD204610BD002010BDD4D40F
S3150200111010B544F202200F2100F092F8002808BF11
S3150200112010BD44F6613144F6501244F6E413C0F29F
S315020011300021C0F20022C0F2002304460020FFF77D
S31502001140CFFD204610BDD4D410B540F60C5045F262
S315020011501861C2F20020C0F2002101F0F9F900285C
S3150200116008BF10BD44F6613144F6155244F6B20387
S31502001170C0F20021C0F20022C0F200230446002081
S31502001180FFF7AEFD204610BDB0B582B040F60C4565
S3150200119040BAC2F20025ADF8060000200C462870BF
S315020011A040F60C50C2F200200DF106010222012384
S315020011B001F05EFA78B144F28E730446C0F200235F
S315020011C01DE000BF00BF00BF2878012803D00A2017
S315020011D0012102F0A9FD28780328F5D10020287004
S315020011E040F60C500122C2F200200023214601F0F3
S315020011F037FAE0B144F626530446C0F2002344F619
S31502001200613144F22872C0F20021C0F200220020AD
S31502001210FFF766FD204602B0B0BD00BF00BF00BFAB
S315020012202878012803D00A20012102F07DFD2878C2
S315020012300228F5D1002002B0B0BDD4D4D4D4D4D47F
S3150200124010B582B040F60C44020AC2F200248DF8B0
S3150200125005208DF806008DF807100020207040F654
S315020012600C500DF10501C2F200200322002301F009
S31502001270FFF9E0B144F6613144F6755244F28E73D9
S31502001280C0F20021C0F20022C0F200230446002070
S31502001290FFF726FD204602B010BD00BF00BF00BF0B
S315020012A02078012803D00A20012102F03DFD207892
S315020012B00328F5D1002002B010BDD4D4D4D4D4D49E
S315020012C0002808BF704740F60C410079C2F200219F
S315020012D008707047D4D4D4D48EB008A84FF0000B4F
S315020012E0CDF820B002F018FD9DF8233044F6CF5118
S315020012F044F2B6729DF821709DF82260C0F2002178
S31502001300C0F200220020CDE90067FFF7E9FC44F6AF
S31502001310F2710020C0F20021FFF7E2FCFFF714FF92
S3150200132044F61721C0F2002100F0A6F9FFF730FDBE
S3150200133044F63221C0F2002100F09EF945F2C8506F
S31502001340C0F2002000F0E4F944F6D901C0F200210F
S3150200135000F092F945F2445640F6144AC0F20026CD
S3150200136040F6B44909ACC2F2002A306DB6F84820FC
S31502001370C0F30B416FF31F30B6F84A707389F689D2
S315020013805043059001FB07F00490701C40F612468C
S3150200139040F60447C2F20026C2F20027C2F2002932
S315020013A040F2EE3801330693039000BF00BF00BF40
S315020013B044F641010020C0F200218DF834B0CDE997
S315020013C00BBBCDE909BBFFF78BFC00BF00BF00BF1B
S315020013D00020FFF74DF908B92FF007C000201122AF
S315020013E021468DF834B0CDE90BBBCDE909BBFFF739
S315020013F033F8204603F0A5F84FF0FF3151FA80F199
S31502001400022979D845F26042C0B2C0F2002243F600
S31502001410004602EB8001C0F20F0632F8205040F679
S315020014200E40C2F200204C883146058040F610403C
S31502001430C2F20020048048F20000C6F6250002F03F
S31502001440B8FF4BF600403146C6F6340002F0B1FF53
S315020014504FF600003146C6F6430002F0AAFF002D01
S315020014605FEA0F90002C5FEA0080012850D140F617
S31502001470184645F24451C2F20026842207903046AD
S31502001480C0F2002102F09AFF0499059844EA054247
S31502001490039BB1FBF5F1A6F84A10316D01F0F0217C
S315020014A022F0F022B0FBF4F06B401144069AA6F843
S315020014B0480070686240316542EA030120F08060AC
S315020014C045F2C85C40F69C4E090418BF00F18060E4
S315020014D0C0F2002CC2F2002E706071469CE87D00BC
S315020014E07DC1079840F618410024C2F20021CEF8C9
S315020014F014100EE000BF00BF44F633310020002472
S31502001500C0F20021FFF7ECFB31E000BF00BF00BFD5
S31502001510032440F61246C2F20026C8B140F69C40A9
S31502001520C2F2002000F0F4F8002800F09B8044F696
S31502001530613144F2157244F6C14304460020C0F2FA
S315020015400021C0F20022C0F200230EE000BF00BF5D
S3150200155044F6613144F2157244F6AF230020C0F21C
S315020015600021C0F20022C0F20023FFF7B9FB45F2C8
S31502001570A1312046C0F2002100F07EF8307809AC95
S3150200158001287FF415AF00BF002000258DF83450E6
S31502001590CDE90B55CDE90955FFF76AF800283ED08B
S315020015A00020112221468DF834B0CDE90BBBCDE9DE
S315020015B009BBFEF751FF9DF8240030281CD03128C4
S315020015C01ED140F23000C2F20020FFF799FBF0B1C3
S315020015D044F6613145F23A4244F6FD3305460020AF
S315020015E0C0F20021C0F20022C0F20023FFF778FB0E
S315020015F015E000BF00BF00BF002535700FE000BF39
S3150200160044F69F3100200025C0F2002105E044F691
S31502001610C92100200025C0F20021FFF761FB44F634
S31502001620F4012846C0F2002100F026F800BF00BFF0
S3150200163087F800B000BF00BF387808B92FF005C0A0
S31502001640DAF800100022484601F01AFE4045EFD0B3
S3150200165044F64D51C0F2002100F00EF83078002811
S3150200166092D1A5E645F2C231012030700020002455
S31502001670C0F2002146E7D4D4002808BF704710B54F
S3150200168004460020FFF72CFB40F6E040C2F20020A1
S315020016900068A8B140F6E040C2F2002000F0D8F996
S315020016A070B144F6613144F2D77244F68A13C0F23D
S315020016B00021C0F20022C0F200230020FFF710FB37
S315020016C040F60C50C2F20020C068A8B140F60C5099
S315020016D0C2F2002000F0DCFF70B144F6613144F240
S315020016E0D77244F61733C0F20021C0F20022C0F2CC
S315020016F000230020FFF7F4FA44F64F210020C0F23F
S3150200170000212246FFF7ECFA00BE10BDD4D4D4D491
S31502001710B0B110B50446FFF7FBFC98B144F2E4738E
S315020017200446C0F2002344F6613144F61302C0F2C5
S315020017300021C0F200220020FFF7D2FA204610BD97
S315020017400320704740F6E040C2F20020006860B114
S3150200175040F6E040C2F2002000F07AF928B144F6E1
S315020017609F130446C0F20023DDE743F2080042213C
S31502001770FFF766FD28B144F237730446C0F2002330
S31502001780D1E740F6E0402146C2F2002000F054F8CC
S3150200179028B145F21A430446C0F20023C3E740F6D5
S315020017A0E0400021C2F2002000F0BAF928B144F666
S315020017B015130446C0F20023B5E7FFF781FC28B1F2
S315020017C044F6DB330446C0F20023ACE7002010BD2A
S315020017D00168012909D1017A890658BF704740F686
S315020017E01441C068C2F2002108607047D4D4D4D430
S315020017F07047D4D4D4D4D4D4FFF76EBDD4D4D4D4C1
S31502001800022818BF704780B540F6F44045F6081125
S31502001810C2F20020C0F2002100F0AEFD0120BDE8B8
S31502001820804002F05DBBD4D480B5FFF7E5FF00200F
S3150200183080BDD4D4D4D4D4D42DE9F0414160044639
S315020018404E69EFF31087012080F3108843F20800F7
S315020018500D46C4F220004EF20018CEF200080168CE
S3150200186021F40031016000681E20012102F05CFAB9
S3150200187047F2004087F31088C4F234004FF6FE7236
S31502001880CFF6BF72816821F0020181607168114052
S3150200189001603169016271694162F16A816531896A
S315020018A0C16071890161B1894161F1898161318BBF
S315020018B0C162F1690163316A4163716A8163316BA5
S315020018C0016671680268490861F341020260716B40
S315020018D0C0F80013B16BC0F80413F16BC0F808131B
S315020018E0316CC0F80C13716DC0F82812B16DC0F8D6
S315020018F02C12F16DC0F83012316EC0F83412716ECE
S31502001900C0F83812B16EC0F83C12F16EC0F840123F
S31502001910316FC0F84412716FC0F8481271680268DC
S31502001920490E61F35962026071680268890B61F3BC
S315020019308F320260F16CC0F89010316DC0F8A410BD
S3150200194071680268890E61F39A620260716CC0F86E
S315020019508010F16F0164B6F8801081640020206166
S31502001960E868A0602869E06096F9792096F8780020
S31502001970002A4FEA001004D408EB020181F80003A2
S3150200198007E002F00F014EF618530439CEF20003B7
S31502001990C85440F6B8514CF20030C2F20021C4F2EB
S315020019A00000012541F8224050F8223023F480330A
S315020019B040F8223050F82230530902F01F02BFF3DA
S315020019C05F8F08EB830705FA02F2C7F8802148F811
S315020019D0232096F97B2096F87A30002A4FEA0313E1
S315020019E004D408EB020787F8003307E002F00F077A
S315020019F04EF61855043FCEF200057B5541F82240BB
S31502001A00012350F8221021F4803140F8221050F8B8
S31502001A102200500902F01F02BFF35F8F08EB80011C
S31502001A2003FA02F2C1F8802148F82020316807C97A
S31502001A3012689047002818BFBDE8F08144F64E10A0
S31502001A40C5F2562020600020BDE8F081D4D4D4D45B
S31502001A5070B547F2004604464068C4F2340645694A
S31502001A603068306820F001003060B06820F0020073
S31502001A70B0607068C00708BF706D2868816800682A
S31502001A80C9688847306820F08060306028688168BD
S31502001A900068496888470021216095F979204EF24D
S31502001AA0801CCEF2000C012602F01F03520906FA30
S31502001AB003F34CF8223040F6B853BFF34F8FBFF30F
S31502001AC06F8F95F97920C2F2002343F8221095F917
S31502001AD07B20540902F01F0206FA02F24CF8242077
S31502001AE00446BFF34F8FBFF36F8F95F97B201E20FD
S31502001AF043F8221043F20801C4F22001EFF31085E5
S31502001B0086F310880A6842F400320A6009680121E5
S31502001B1002F00AF985F31088204670BDD4D4D4D4D5
S31502001B204068406990F82820012A47F20042C4F230
S31502001B30340202D1116351639163116841F4800149
S31502001B4011601168C1F380511168C1F380511168A7
S31502001B50C1F380511168C1F380511168C1F38051FC
S31502001B601168C1F380511168C1F380511168C1F344
S31502001B7080511168C1F380511168C1F38051816CA3
S31502001B80C2F88410116841F001011160916841F0B8
S31502001B900201916000688168006889680847D4D4A8
S31502001BA02DE9F0418AB04FF07041EFF3038001EB6B
S31502001BB0006047F2044C40F6B853C4F2340C821566
S31502001BC0C2F200230016012153F80280DCF800302D
S31502001BD0DCF84020CDE90013910602924FF0000195
S31502001BE003910FD5DCF80010C94311F0180F01D18B
S31502001BF0002306E0DCF80010C1F3C1410CEB8101C1
S31502001C00CB6A039342F08022D8F80C10049142F07A
S31502001C100101CCF840104CF20031C4F2000151F837
S31502001C20202022F4803241F8202051F82000D8F8F2
S31502001C301000694658B103460DF1140C93E8F400FE
S31502001C408CE8F400024691E8F800F8C200E0084683
S31502001C50D8F808108847D8F8100018B105A991E8F5
S31502001C60EC00ECC00AB0BDE8F081D4D4D4D4D4D40C
S31502001C70F0B546F6004391F80CC0C4F234039A6CF0
S31502001C8022F0010262444EF2200CC4F2010C9A6464
S31502001C90DCF80020BCF80440844644EA123E5FEABF
S31502001CA00E70C2F3033E04F00F0009D440F6F05260
S31502001CB0C2F20022126802FA00F020FA0EF01BE0CD
S31502001CC000F00704032505FA04F40126170B082879
S31502001CD038BF06FA00F407F0070040F6F057C2F2E2
S31502001CE0002705FA00F012043D6805FB04F258BF0E
S31502001CF006FA0EF0B2FBF0F04DF683621F68C4F2EC
S31502001D001B32A0FB02024FF0FF3000EB92403A0A70
S31502001D1062F31F201860186940F00100186100BFC5
S31502001D20D869C007FCD0087B012810D10868586022
S31502001D300879DA6860F30402DA60986820F0010034
S31502001D40986000BF00BF00BFD869C005FCD588688F
S31502001D5002686FF3DF425A6242689A628268DA6206
S31502001D60C2681A6302695A63007D44F65012986388
S31502001D70C4F65052186A40F0010018620020CCE9FD
S31502001D800021F0BDD4D4D4D446F60842C4F23402BB
S31502001D90916921F001019161116841F0010111601F
S31502001DA09368014623F001009060002000220A6039
S31502001DB07047D4D4D4D4D4D4F0B581B004464160AB
S31502001DC0EFF31086012080F3108843F20800C4F274
S31502001DD020000D46016821F40031016000681E20D2
S31502001DE0012101F0A1FF86F31088296807C912684C
S31502001DF0904708B101B0F0BD47F21C00C4F23400AE
S31502001E00016821F0010101600169C907FCD1696815
S31502001E1040F80C1CA96840F8041C296941626969EA
S31502001E208162D5E90612C0E91112E968C0F86412A6
S31502001E30E96AC165296BC166696BC1674FF0100E0D
S31502001E4005F1380100F1EC0251F8043B42F8103B6F
S31502001E500FF007C0A96FC0F8EC11E96FC0F8701255
S31502001E6000202061D5F88000A060D5F88400E060EB
S31502001E7095F9211095F820204EF6185C4EF20010C6
S31502001E80CEF2000C0029CEF200004FEA021203D471
S31502001E90431883F8002304E001F00F03634403F8B8
S31502001EA0042C40F6B85E4CF20032C2F2002EC4F2A6
S31502001EB0000201274EF8214052F8213023F48033E4
S31502001EC042F8213052F821304B0901F01F01BFF3CD
S31502001ED05F8F00EB830607FA01F1C6F8801140F81E
S31502001EE0231095F9231095F8223000294FEA03139F
S31502001EF003D4461886F8003304E001F00F06664460
S31502001F0006F8043C4EF8214052F8213023F480337F
S31502001F1042F8213052F821304B0901F01F01BFF37C
S31502001F205F8F00EB830607FA01F1C6F8801140F8CD
S31502001F30231095F9251095F8243000294FEA03134A
S31502001F4003D4461886F8003304E001F00F0666440F
S31502001F5006F8043C4EF8214052F8213023F480332F
S31502001F6042F8213052F821304B0901F01F01BFF32C
S31502001F705F8F00EB830607FA01F1C6F8801140F87D
S31502001F80231095F9271095F8263000294FEA0313F6
S31502001F9003D4461886F8003304E001F00F066644BF
S31502001FA006F8043C4EF8214052F8213023F48033DF
S31502001FB042F8213052F821304B0901F01F01BFF3DC
S31502001FC05F8F00EB830607FA01F1C6F8801140F82D
S31502001FD0231095F9291095F8283000294FEA0313A2
S31502001FE003D4471887F8003305E001F00F0505EB27
S31502001FF00C0707F8043C4EF82140012752F821301D
S3150200200023F4803342F8213052F821204A0901F0A4
S315020020101F01BFF35F8F00EB820307FA01F1C3F8DA
S31502002020801140F8221044F64310C4F65050206046
S31502002030002001B0F0BDD4D4F0B581B007464068A7
S315020020404EF2801290F92110CEF200024D0901F0F3
S315020020501F03012101FA03F342F82530BFF34F8F24
S31502002060BFF36F8F90F9214040F6B853C2F20023B6
S31502002070002543F8245090F92340660904F01F0412
S3150200208001FA04F442F82640BFF34F8FBFF36F8F75
S3150200209090F9236043F8265090F92560740906F0FA
S315020020A01F0601FA06F642F82460BFF34F8FBFF30C
S315020020B06F8F90F9256043F8265090F927607409CE
S315020020C006F01F0601FA06F642F82460BFF34F8FA8
S315020020D0BFF36F8F90F9276043F8265090F9296075
S315020020E0740906F01F06B14042F82410BFF34F8F61
S315020020F0BFF36F8F90F9291043F821500068816869
S3150200210000684968884708B101B0F0BD00203D600B
S3150200211001B0F0BDD4D4D4D447F21C010020C4F2DD
S3150200212034010A6842F001020A607047D4D4D4D45A
S3150200213047F21C00C4F23400816D890301D40120E8
S315020021407047016821F001010160C16841F0010197
S31502002150C16000207047D4D447F29420C4F2340000
S3150200216050F8102C12F47F4F08D0026842F0010298
S31502002170026050F8040C0860002070470D2070477A
S3150200218047F27402C4F2340252F8040C10F4003F0F
S315020021904FF0010050EA009008700020116841F4E7
S315020021A0003111607047D4D410B588B04FF0704139
S315020021B0EFF3038001EB006040F6B8518015C2F2DE
S315020021C000210C584FF47F41ADF8001047F2700120
S315020021D0C4F234010A680192E368039302F40032FE
S315020021E04A604CF20031C4F20001425822F48032B5
S315020021F042504058206960B1D0E900C2CDE904C21C
S31502002200D0E90231CDE906319DE80E1080E80E10C4
S3150200221000E06846A1688847206910B104AC1ECC6C
S315020022201EC008B010BDD4D470B588B04FF070414E
S31502002230EFF3038001EB006040F6B85147F250021B
S315020022408015C2F20021C4F234020C581668116BD2
S31502002250156C21F08073536325F0807353644CF23E
S315020022600032C4F20002835823F48033835080582C
S31502002270E0680390F0074FF001008DF800001DD0D2
S31502002280206900228DF80120019160B1D0E900C2D7
S31502002290CDE904C2D0E90231CDE906319DE80E103E
S315020022A080E80E1000E06846A1688847206928B1D8
S315020022B00DF1100C9CE80E1080E80E10B00718D530
S315020022C0206901218DF80110019550B10DF1100C14
S315020022D090E84E008CE84E009DE84E0080E84E00E5
S315020022E000E06846A1688847206910B104AE4ECE68
S315020022F04EC008B070BDD4D410B588B04FF070414E
S31502002300EFF3038001EB006040F6B8518015C2F28C
S3150200231000210C5847F25001C4F234010968022127
S315020023208DF80010E16803914CF20031C4F200010D
S31502002330425822F48032425040582069FF218DF8DB
S3150200234001104FF00001019160B1D0E900C2CDE960
S3150200235004C2D0E90231CDE906319DE80E1080E8CB
S315020023600E1000E06846A1688847206910B104ACE7
S315020023701ECC1EC008B010BD80B545F25422C5F26F
S315020023804F020260084600F003F8002080BDD4D454
S31502002390F0B581B0044600F067F840F6B45CEFF39E
S315020023A01081C2F2002C012080F31088DCF80000B4
S315020023B038B940F614500022C4F24000027040229E
S315020023C00270DCF800000130CCF8000081F31088BE
S315020023D0208850B340F6000E0021C4F2400E6FF082
S315020023E03F030BE000BF00BF03EA9205D2B2754479
S315020023F0013145F822002088814216D2606800EB3E
S31502002400C10250F831009288C503EDD503EA920560
S31502002410D6B2754455F8267027F4803745F82670EB
S3150200242020F4803745F82670DEE70120EFF31081AD
S3150200243080F31088DCF8000020B1DCF800000138D7
S31502002440CCF80000DCF8000038B940F6145000223F
S31502002450C4F2400002708022027081F3108801B03B
S31502002460F0BDD4D4D4D4D4D42DE9F04F81B00446EF
S315020024700088002867D04EF64C4B0025C4F2010BAB
S315020024804FF0010A04E000BF2088013585425AD286
S3150200249045F64C1642F240080027C0F20026C4F266
S315020024A020080CE000BF00BF88F80000C820012108
S315020024B001F03AFC013708F10208032FE4D0606804
S315020024C036F8021B00EBC50082888A42F2D1006808
S315020024D09BF8001000F0B8500AFA07F9B0F1807FB5
S315020024E009EA010018D158B9012001F0D1FC9BF884
S315020024F0000040EA09008BF80000012001F09CFC74
S3150200250098F900000028D5D498F8000040F0800021
S31502002510CAE700BF00BF00BF58B1012001F0B8FCF6
S315020025209BF8000020EA09008BF80000012001F068
S3150200253083FC98F90000B0F1FF3FBBDC98F800007D
S3150200254000F07F00B0E701B0BDE8F08FD4D4D4D458
S31502002550F0B581B00C4609784EF200020546C4F287
S31502002560250243F2040702EB012028612C60C4F223
S315020025702007A0686860207B2872E0696863206A89
S31502002580E8630020A863C5E90500C5E9070085F8E8
S31502002590290085F82A0085F82B0085F82C000120F1
S315020025A0EFF3108680F310882178C1F10901884083
S315020025B0396821EA0000386038681E20012101F0DE
S315020025C0B3FB86F310882846214600F0E1F8A0699D
S315020025D058B141684FF4002209680A60D0E9011235
S315020025E00068126890470646B0B9606998B14168BA
S315020025F04FF0006209680A60D0E9011200681268A9
S315020026009047F0B10646A06930B181680068096A50
S31502002610884716B918E00026B6B10120EFF31085F7
S3150200262080F3108821783A68C1F1090188400121B6
S315020026301043386038681E2001F076FB85F3108857
S3150200264008E00026002EE8D144F643100026C5F223
S315020026504920E860304601B0F0BDD4D4D4D4D4D4F5
S315020026609C46012380F82AC000F08AB9D4D4D4D477
S315020026709C46002380F82AC000F082B9D4D4D4D470
S315020026800346002059601A727047D4D4D4D4D4D4E5
S31502002690B0B5044600690025C5712046216800F0E0
S315020026A077F894F82600A16984F828002069C4E91D
S315020026B00751B32184F82C5084F82A50C17120693D
S315020026C0C571E5602068806918B181680068096A89
S315020026D088472068406918B181680068096A884796
S315020026E020684EF28011CEF2000190F911004309E2
S315020026F000F01F02012000FA02F241F82320BFF384
S315020027004F8FBFF36F8F226892F90E20530902F0A2
S315020027101F0200FA02F241F82320BFF34F8FBFF3E4
S315020027206F8F226892F91020530902F01F0200FAF5
S3150200273002F241F82320BFF34F8FBFF36F8F226857
S3150200274092F90F20530902F01F0200FA02F241F831
S31502002750232043F20402BFF34F8FBFF36F8FEFF3D1
S31502002760108580F310882168C4F220020978136864
S31502002770C1F10901884001211843106010681E202A
S3150200278001F0D2FA85F310880020B0BDD4D4D4D497
S31502002790F0B50269002313704023026913700269BF
S315020027A013785B06FCD5C0231370026803690825FB
S315020027B04EF6185C526ACEF2000C127942F0E00232
S315020027C01A7402680369526AD27842F0E0025A74B5
S315020027D002680369526A927862F306159D7002686E
S315020027E00569526A13785278012B5FEA1F9343EA0E
S315020027F0420242F00402EA70026844F24025C0F244
S315020028000F0503695268AA424FF0770208BF6FF0BC
S3150200281008025A71002302699371B3230269D371C4
S315020028204EF2001291F911404B7BCEF20002002CBF
S315020028304FEA031303D4151985F8003304E004F0B4
S315020028400F05654405F8043C40F6B85E4CF20033C9
S31502002850C2F2002EC4F2000301274EF8240053F8F8
S31502002860245025F4803543F8245053F82450650942
S3150200287004F01F04BFF35F8F02EB850607FA04F428
S31502002880C6F8804142F8254091F90F404D7B002C55
S315020028904FEA051503D4161986F8005304E004F02E
S315020028A00F06664406F8045C4EF8240053F82450DA
S315020028B025F4803543F8245053F82450650904F072
S315020028C01F04BFF35F8F02EB850607FA04F4C6F80E
S315020028D0804142F8254091F910404D7B002C4FEA89
S315020028E0051503D4161986F8005304E004F00F0602
S315020028F0664406F8045C4EF8240053F8245025F486
S31502002900803543F8245053F82450650904F01F0417
S31502002910BFF35F8F02EB850607FA04F4C6F880411F
S3150200292042F8254091F90E40497B002C4FEA0111ED
S3150200293003D4171987F8001305E004F00F0505EB19
S315020029400C0707F8041C4EF8240004F01F0753F87E
S315020029502410012621F4803143F8241053F8241060
S31502002960610906FA07F7BFF35F8F02EB8103C3F82B
S31502002970807142F821709F2100690170F0BDD4D4A4
S3150200298090F808C0C0E90512BCF1010F08D101791F
S315020029904FF48072A0F8252043EA410180F8241002
S315020029A010B581B04EF2200180F82930C4F201013F
S315020029B009680091009901F00F210091DDF800C02D
S315020029C0DDF800E001690A7C90F82C309BB9CCF363
S315020029D00323A3EB1E639A40042A07D3920800BF7F
S315020029E091F90130002B04D5013AF9D1082001B042
S315020029F010BD0022CA71002102688369C0E907314D
S31502002A0090F8263080F82810D0F810C080F82730C9
S31502002A1080F82B1080F82D1080F82E1080F82F10D9
S31502002A2080F83010516A0A784B7891F805E08C7973
S31502002A30012A5FEA1F9242EA430242EA0E1242EA80
S31502002A40C41242F004028CF803200269137943F09F
S31502002A50100313710269137903F0F7031371026904
S31502002A60137903F0EF0313710269C979137903F03D
S31502002A707F0343EAC111117101694A7942F00102E9
S31502002A804A71016891F90F1000290BD401F01F0257
S31502002A90012303FA02F24EF200134909CEF20003B1
S31502002AA043F8212001694A7A02F0F3024A72016967
S31502002AB0BF22CA7190F82C1019B1002180F82C108F
S31502002AC002E0006902214170002001B010BDD4D499
S31502002AD0B0B582B04FF07041EFF3038001EB0060B6
S31502002AE04CF200328015C4F20002835823F480337C
S31502002AF083508058EFF3038001EB006040F6B85133
S31502002B008015C2F200210D5895F82D0040B195F8B6
S31502002B102E00012845D1002085F82E0002B0B0BD56
S31502002B20A869022804D82869017941F04001017197
S31502002B30E86901280ED12869017941F01001017175
S31502002B402869017941F0080101712869017901F0CA
S31502002B50EF01017128688069B8B1296995F82920C1
S31502002B60012A12D1AB69042B0FD38268033B1331BE
S31502002B70006894686A699BB2A047A9690320033971
S31502002B80C5E90701012085F82E002868406AC07948
S31502002B9001283DD1AC6BA4B1D4E90001CDE9000115
S31502002BA010E0E869002800F0CD802868406AC07904
S31502002BB001285FD1AC6BB4B3D4E90001CDE90001C1
S31502002BC032E06C46E86B2060052020712868406977
S31502002BD030B195F8291019B98168006809698847E2
S31502002BE02868806938B195F82910012903D18168CE
S31502002BF0006809698847696B20468847A86B0028E0
S31502002C001CBFDDE90012C0E90012002085F82B0086
S31502002C102869C07C8DF800009DF80000012085F827
S31502002C202D0002B0B0BD6C46E86B20600520207115
S31502002C302868406930B195F8291019B98168006889
S31502002C40096988472868806938B195F829100129E9
S31502002C5003D18168006809698847696B20468847FD
S31502002C60A86B00281CBFDDE90012C0E90012002093
S31502002C7085F82B00E869012819D0022807D0032815
S31502002C8053D12869017941F0400101714DE028696B
S31502002C90017941F0100101712869017941F00801B9
S31502002CA001712869017901F0EF0101713DE095F8A2
S31502002CB02A00012831D128684EF28013CEF2000391
S31502002CC090F90F00420900F01F01012000FA01F1FC
S31502002CD043F82210BFF34F8FBFF36F8F2969CA796A
S31502002CE042F08002CA7129690A7942F010020A7119
S31502002CF029690A7902F0F7020A7129690A7902F04A
S31502002D00EF020A71296904224A7029694A7902F096
S31502002D10FE024A7185F82C0007E02869417A01F023
S31502002D20F7014172286908214170D5E90401C07C86
S31502002D302A6A8854D5E90701013801F10101C5E97A
S31502002D40070101D002B0B0BD2869017901F0BF01C7
S31502002D50017102B0B0BDD4D470B582B04FF07041EB
S31502002D60EFF3038001EB00604CF200368015C4F2EB
S31502002D700006825922F4803282518059EFF3038091
S31502002D8001EB006040F6B8518015C2F200210D58E1
S31502002D9095F82700A8B395F82610032907D195F8C8
S31502002DA02810022903D195F8301000297CD095F815
S31502002DB02440012817D128684069A0B1296995F8ED
S31502002DC0292082B9AA6972B101F112028168AB8B1C
S31502002DD000688E686969B0470020A969C5E90701DC
S31502002DE0012085F82F002869847495F8280095F843
S31502002DF02710013085F82800481E85F8270002B002
S31502002E0070BD95F8290000284ED12868406AC0791D
S31502002E10012832D195F82B0078BB286A68B3AC6BCF
S31502002E2024B1D4E90001CDE9000100E06C46E86B6B
S31502002E302060052020712868406930B195F8291074
S31502002E4019B981680068096988472868806938B1B4
S31502002E5095F82910012903D1816800680969884714
S31502002E60696B20468847A86B00281CBFDDE9001263
S31502002E70C0E90012002085F82B0095F82F000128E2
S31502002E8003D1002085F82F000CE0E86950B1D5E99E
S31502002E9004012A6A895C8174D5E907100130013977
S31502002EA0C5E90710E86908B102B070BD2869C179A1
S31502002EB001F07F01C17128696FF0BE0100BF00BF3A
S31502002EC090F90720B2F1FF3F03DC002901F101016D
S31502002ED0F6D1286890F9100056F8201021F48031B6
S31502002EE046F8201056F82000286890F910000028AD
S31502002EF00BD44EF2802300F01F014009CEF20003EC
S31502002F00012202FA01F143F820102869C17941F041
S31502002F104001C17102B070BDB0B582B04FF07041D0
S31502002F20EFF3038001EB006040F6B8518015C2F260
S31502002F3000210D582868406AC07901282DD1AC6B52
S31502002F4024B1D4E90001CDE9000100E06C46E86B4A
S31502002F502060052020712868406930B195F8291053
S31502002F6019B981680068096988472868806938B193
S31502002F7095F82910012903D18168006809698847F3
S31502002F80696B20468847A86B00281CBFDDE9001242
S31502002F90C0E90012002085F82B0095F829000128C7
S31502002FA006D195F82700012802D195F8300080B3A2
S31502002FB0E86970BB95F82A00012822D128684EF2EA
S31502002FC08013CEF20003012290F90F0000F01F01D8
S31502002FD0400902FA01F143F82010BFF34F8FBFF305
S31502002FE06F8F2869C17941F08001C1712869042176
S31502002FF041702869417901F0FE01417185F82C2062
S3150200300007E02869417A01F0F7014172286908212F
S3150200301041702869C17901F0BF01C17128696FF059
S31502003020BE0100BF00BF00BFC279520603D5002908
S3150200303001F10101F8D14FF07041EFF3038001EB8A
S3150200304000604CF200318015C4F20001425822F4AD
S3150200305080324250405802B0B0BDD4D4D4D4D4D475
S3150200306070B582B04FF07041EFF3038001EB006060
S3150200307040F6B8518015C2F200210C5821694A7AED
S315020030804B7A02F01F0003F0E00310284B7202F0A5
S31502003090030121D20022114326D0012684F82B6097
S315020030A020690025C57120462168FFF771FB94F857
S315020030B02600A16984F828002069C4E90751B321D2
S315020030C084F82C5084F82A50C171A56B25B3D5E932
S315020030D00001CDE9000120E02269527812F0400F8A
S315020030E05FEA1F921143D8D1102803D321694A7887
S315020030F0520616D4010706D494F82C20012A36D19A
S3150200310010F0040233D0E06910B994F82B00D0B362
S3150200311000291ED401203DE06D46E06B28602E7129
S3150200312043E0012084F82B000820487020682369B8
S31502003130406A41790278807942EA011141EAC01077
S3150200314040F00200D8702069417941F001014171D5
S315020031504DE00020A169C4E9070194F8261084F81D
S31502003160281084F82C0084F82A0001200FE040077A
S315020031703DD52068406AC079012838D1042120460D
S3150200318000F04AF833E094F8290080F00300216940
S31502003190B322CA71A56B25B1D5E90012CDE9001299
S315020031A000E06D46E16B296028712068406930B104
S315020031B094F8291019B98168006809698847206856
S315020031C0806938B194F82910012903D18168006811
S315020031D009698847616B28468847A06B00281CBF8F
S315020031E0DDE90012C0E90012002084F82B004FF03E
S315020031F07041EFF3038001EB00604CF20031801561
S31502003200C4F20001425822F480324250405802B0C1
S3150200321070BDD4D4D4D4D4D4B0B582B0856B0446B0
S3150200322025B1D5E90002CDE9000200E06D46E06B6A
S31502003230286029712068406930B194F8291019B9BB
S3150200324081680068096988472068806938B194F8FE
S315020032502910012903D18168006809698847616BD1
S3150200326028468847A06B00281CBFDDE90012C0E98A
S315020032700012002084F82B0002B0B0BDD4D4D4D4FE
S3150200328043F20003C4F2340303EB0220D0F8002118
S31502003290D20718D11A68D20515D400F5807001221A
S315020032A000295FEA0F9C18BF0322036A23F0020378
S315020032B01A430262C0F804C0C160016841F001010C
S315020032C001600020704740F2EE307047D4D4D4D467
S315020032D040F64C5040F65851C2F20020C2F200218C
S315020032E000680A6801320A60096831B940F650512D
S315020032F00022C2F20021C1E9002280B582B040F26A
S3150200330010310122C2F200210A704A70416839B1B5
S315020033108268019203218DF8001041686846884749
S3150200332043F24840C4F23400016841F001010160F1
S315020033304FF07041EFF3038001EB00604CF2003175
S315020033408015C4F20001425822F48032425040589D
S3150200335002B080BDD4D4D4D480B582B040F64C50ED
S31502003360C2F200200068416839B1826801920121E7
S315020033708DF8001041686846884743F24840C4F217
S315020033803400016841F0020101604FF07041EFF331
S31502003390038001EB00604CF200318015C4F200019B
S315020033A0425822F480324250405802B080BDD4D4F2
S315020033B080B582B040F64C50C2F2002000684168E7
S315020033C039B18268019202218DF80010416868467F
S315020033D0884743F24840C4F23400016841F00401D0
S315020033E001604FF07041EFF3038001EB00604CF295
S315020033F000318015C4F20001425822F48032425054
S31502003400405802B080BDD4D42DE9F04140F65C525A
S3150200341040F20008C2F200220E460446C2F200281A
S31502003420137803BB43F200000127C4F22000177091
S31502003430EFF3108587F31088016821F4800101609B
S3150200344000681E20012100F06FFC85F310882C21F4
S31502003450404600F0AEFF4AF61040C4F20000C0F843
S31502003460048000F8047C706890F9000000282ED4CD
S3150200347058F8201000291CBF0820BDE8F0812071F1
S315020034803068E0B1014604E08A78103112F0C00FCC
S3150200349009D00A68B2F1804FF6D3CA89D3B243EA99
S315020034A00222CA81F0E74AF610410822C4F200015C
S315020034B00A7094F9042048F822001820087044F291
S315020034C00030C4F2544020600020BDE8F0810B2099
S315020034D0BDE8F081D4D4D4D410B590F904204CF2CE
S315020034E0003CC4F2000C4AF6104EC4F2000E5CF820
S315020034F0223023F080734CF8223090F9042042F4F3
S31502003500004200BF00BF00BF3EF8023C9A42FBD019
S315020035100A4606E000BF00BF9378103213F0C00FD0
S3150200352009D01368B3F1804FF6D3D389DCB244EAEB
S315020035300323D381F0E708228EF8002090F90420B5
S3150200354040F20003C2F2002343F8221018218EF83B
S31502003550001090F9041000205CF8212042F08072DD
S315020035604CF8212010BDD4D410B582B0019100923E
S3150200357090F904104CF2003C40F20002C4F2000C36
S31502003580C2F2002252F821E05CF8212022F0807279
S315020035904CF8212090F904204AF61041C4F20001A9
S315020035A042F4004200BF00BF31F8024CA242FBD0F7
S315020035B008220A70019A002A1CBF019ACEF804203A
S315020035C0009A002A1CBF009ACEF80820DEF80020D6
S315020035D0B2F1404F02DAAEF80C3005E00024B4EB4B
S315020035E0927F08BFAEF80E3018220A7090F90410C6
S315020035F000205CF8212042F080724CF8212002B0B3
S3150200360010BDD4D4D4D4D4D490F904104CF20032E0
S31502003610C4F20002002052F8213043F0807342F8CF
S3150200362021307047D4D4D4D490F904104CF200322D
S31502003630C4F20002002052F8213023F0807342F8CF
S3150200364021307047D4D4D4D406207047D4D4D4D4ED
S3150200365006207047D4D4D4D490F9040040F2000274
S31502003660C2F2002252F820000022C1E900220268BA
S31502003670B2F1804F06D24FF480328A60C089C860A8
S31502003680002070474FF480728A60C289D2B2CA6043
S315020036900268B2F1404FF3DA4FF480320A60808951
S315020036A0486000207047D4D4014690F904204CF2B9
S315020036B0003040F2000CC4F20000C2F2002C50F8B6
S315020036C0223023F0807340F82230002000234CF889
S315020036D022300B607047D4D406207047D4D4D4D499
S315020036E006207047D4D4D4D44EF22401C4F2010188
S315020036F08878098801F00F02A2F1080103293BD854
S31502003700DFE801F0022C101E40F22071C2F2002105
S3150200371051F820004AF6AB21CAF6AA21A0FB010104
S31502003720480830E040F22071C2F2002151F8200030
S315020037304AF6AB21CAF6AA21A0FB0101C80822E07B
S3150200374040F22071C2F2002151F820004AF6AB2164
S31502003750CAF6AA21A0FB0101080914E040F2207171
S31502003760C2F2002151F820004AF6AB21CAF6AA217C
S31502003770A0FB0101880806E040F22071C2F2002196
S3150200378051F82000D04040F6F051C2F20021086004
S315020037907047D4D4D4D4D4D42DE9F04F81B04EF2AC
S315020037A0FA384AF20150C4F20108CFF6FF7040F22D
S315020037B0207B0230A8F80000C2F2002B46F6004039
S315020037C04EF25505C0F2DC2041F2002143F20063BD
S315020037D0C4F20105C0F27A014FF40042C0F26E1340
S315020037E04CF6002744F2553448F2004C44F2006687
S315020037F0C3F69A378BE80F0040F6000043F6000145
S31502003800C1F2DE34C1F2D77CC2F2C336CBE9042759
S31502003810C2F6AF70C1F69C41CBE90664CBF828101C
S31502003820CBE908C015F82F0C35F8311C01F00F0250
S31502003830A2F1080103292BD8DFE801F002200C16B9
S315020038404AF6AB215BF82000CAF6AA21A0FB0101C9
S31502003850480820E04AF6AB215BF82000CAF6AA2106
S31502003860A0FB0101C80816E04AF6AB215BF820006E
S31502003870CAF6AA21A0FB010108090CE04AF6AB210F
S315020038805BF82000CAF6AA21A0FB0101880802E023
S315020038905BF82000D04040F6F05A4EF60044C2F2E1
S315020038A0002AC4F201040A214EF60147CAF80000B2
S315020038B04FF65060CFF6FF70C4F20107215409207B
S315020038C085F84D00207818B93878800700F0D38142
S315020038D0207840B901202070C820012100F024FA86
S315020038E020780128FCD10020387020704AF2015954
S315020038F0002005F81F0C05F8230C00BF00BF00BF0F
S3150200390015F8190C0007FBD542F602314EF6145093
S31502003910C0F20101C5F8731040F2234125F8071CD5
S31502003920002205F80B2C4FF60211C5F8571040F28B
S31502003930514125F8091CCEF200004EF20001BFF3F8
S315020039404F8FBFF36F8F0368CEF2010123F400336A
S315020039500360C0F83C22BFF34F8FBFF36F8F0A6834
S3150200396022F440520A60BFF34F8FBFF36F8F15F8F0
S31502003970412C02F0F802013205F8412C00BF00BFCB
S3150200398015F8412CD206FBD40A6842F440520A606A
S31502003990BFF34F8FBFF36F8F0168890312D4BFF352
S315020039A04F8FBFF36F8F0021C0F83C12BFF34F8FCA
S315020039B0BFF36F8F016841F400310160BFF34F8F8F
S315020039C0BFF36F8F002005F82B0C00BF00BF00BFAE
S315020039D015F8190C8006FBD54CF200040020C4F23F
S315020039E0130420702078207820786068FA2807D09F
S315020039F0FA20C1F6006000BF60606168FA29FBD157
S31502003A00A0687D2808D07D20CEF2001000BF00BF3E
S31502003A10A060A1687D29FBD143F23240C3F2232084
S31502003A2045F8350C42F2201025F8310C052005F830
S31502003A302F0C15F82F0C35F8311C01F00F02A2F1EC
S31502003A40080103292BD8DFE801F002200C164AF6FA
S31502003A50AB215BF82000CAF6AA21A0FB01014808A7
S31502003A6020E04AF6AB215BF82000CAF6AA21A0FBA9
S31502003A700101C80816E04AF6AB215BF82000CAF637
S31502003A80AA21A0FB010108090CE04AF6AB215BF86A
S31502003A902000CAF6AA21A0FB0101880802E05BF811
S31502003AA02000D040CAF800001E200121012700F0A4
S31502003AB03BF960686FF39F20652828BF277015F8C9
S31502003AC02F0C35F8311C01F00F02A2F1080103296F
S31502003AD02BD8DFE801F002200C164AF6AB215BF880
S31502003AE02000CAF6AA21A0FB0101480820E04AF6F6
S31502003AF0AB215BF82000CAF6AA21A0FB0101C80887
S31502003B0016E04AF6AB215BF82000CAF6AA21A0FB12
S31502003B10010108090CE04AF6AB215BF82000CAF65F
S31502003B20AA21A0FB0101880802E05BF82000D04030
S31502003B3042F20001CAF80000C4F200010120A1F815
S31502003B400090BFF35F8F08724FF42540BFF35F8F7B
S31502003B50088095F8850040F0400085F8850000BF92
S31502003B6095F98500B0F1FF3FFADC032085F87F0066
S31502003B70C92085F8850095F8850000F0BF0085F814
S31502003B80850000BF00BF00BF95F985000028FBD461
S31502003B90012005F8020C002005F8170C802005F814
S31502003BA0170C287840F04000287000BF00BF00BF05
S31502003BB095F90000B0F1FF3FFADC022005F8010C8E
S31502003BC0CA202870287800F0BF00287000BF00BF06
S31502003BD095F900000028FBD4A87840F04000A870B0
S31502003BE095F90200B0F1FF3FFADC00206870C720A9
S31502003BF0A870A87800F0BF00A87000BF00BF00BF81
S31502003C0095F902000028FBD4287A40F04000287279
S31502003C1095F90800B0F1FF3FFADC0120E871C620F1
S31502003C202872287A00F0BF00287200BF00BF00BFCA
S31502003C3095F908000028FBD4A87A40F04000A87243
S31502003C4095F90A00B0F1FF3FFADC01206872CA203A
S31502003C50A872A87A00F0BF00A87200BF00BF00BF1A
S31502003C6095F90A000028FBD44FF42540A8F8000075
S31502003C7001B0BDE8F08F4FF47A7000F001F835E636
S31502003C807047D4D4D4D4D4D4B0B542F22404C820D4
S31502003C90C4F2200401210025257100F045F82570A3
S31502003CA0207808B12FF005C0207840F0020020707D
S31502003CB020788007FCD4002004F8020C00BF00BF65
S31502003CC014F8020C08B12FF005C84FF0030E0020BD
S31502003CD004F11C0100BF00BF11F8102002F07F02A0
S31502003CE001F8102000BF00BF11F91020002AFBD4F2
S31502003CF001300FF00FC8012000F0CAF84EF64C4111
S31502003D000120C4F2010100220A70BDE8B04000F0B1
S31502003D1093B8D4D4D4D4D4D4014600220020C0F21D
S31502003D2004620A607047D4D440F6F05241F200238E
S31502003D30C2F20022C0F27A03484312689A4212D3B0
S31502003D4044F23F21C0F20F0111444DF68362C4F2E0
S31502003D501B32A1FB0212910CA0FB0101002918BF24
S31502003D604FF0FF301BE04CF60021C3F69A31B1FB4F
S31502003D70F2F148F63812C0F24102904205D24FF4EF
S31502003D807A725043B0FBF1F009E0B0FBF1F14FF467
S31502003D907A734FF0FF30914238BF01FB03F00028DF
S31502003DA008BF704700F000B801380028FCD1704700
S31502003DB0F0B581B04CF2201540F66057C4F200050A
S31502003DC00024C2F2002755F8200C296801EA0006F1
S31502003DD006E000BF00BF00BF01340437152C09D02E
S31502003DE026FA04F0C007F7D039680029F4D0204635
S31502003DF08847F1E745F8106C28683042FCD101B0DB
S31502003E00F0BDD4D4D4D4D4D480B54FF00B0E4CF23A
S31502003E10003045F61411C4F20000C0F2002100BFC2
S31502003E2031F8022B002A18BF026004300FF009C0D5
S31502003E3080BDD4D4D4D4D4D4EFF31081012282F33A
S31502003E40108840F6E452C2F2002232F8103023B152
S31502003E5032F81030013B22F8103032F8102012B13D
S31502003E6081F3108870474EF2FA3245F6CC3CC4F222
S31502003E700102C0F2002C13883CF8100043F42543DB
S31502003E8023EA0000108081F310887047D4D4D4D47A
S31502003E9010B5EFF31081012282F3108840F6E45246
S31502003EA0C2F2002232F8103083B94EF2FA3E45F6DB
S31502003EB0CC3CC4F2010EC0F2002CBEF800403CF825
S31502003EC01030234343F42543AEF8003032F8103065
S31502003ED0013322F8103081F3108810BDD4D4D4D423
S31502003EE070B543F650450446C4F2000500BF00BF54
S31502003EF0287808B12FF005C04FF0870025F82C0C62
S31502003F004FF0100005F8500C8CB10020FFF7C0FFEF
S31502003F104EF253000126C4F2010006700020FFF79C
S31502003F208BFF05F8306C00BF28780007FCD401200F
S31502003F3005F84E0C002005F84F0C00BF00BF00BF6D
S31502003F40287808B12FF005C042F20350C0F20500EE
S31502003F50C4B14FF40C7125F8081C00BF00BF00BFA6
S31502003F602978C907FCD145F80C0C012005F8100C7C
S31502003F7047F2A83125F83C1C05F83A0C112005F841
S31502003F80500C70BD45F80C0C012005F8100C47F2D8
S31502003F90A83125F83C1C05F83A0C00BF00BF00BF4B
S31502003FA015F8500CC007FBD1287808B12FF009C0CC
S31502003FB0012005F8400C70BD00F00AF8FDF734FC4C
S31502003FC0FEE7D4D4D4D4D4D400BE7047D4D4D4D447
S31502003FD02DE9F0474EF6145540F20120CEF20005C7
S31502003FE0C0F20E004EF200042860CEF20104BFF3C6
S31502003FF04F8FBFF36F8F55F8141CC1F3035001287E
S315020040005FEA1F9211F00F0F5FEA0F9111422168CA
S3150200401011D102280FD241F0040020604EF20800AE
S31502004020BFF34F8FCEF20000BFF36F8F016841F4EA
S315020040308031016002E021F004002060BFF34F8F5F
S31502004040BFF36F8F4FF4700040F2000168670020E3
S31502004050C0F2002145F80C1C0026FDF7D1FBFFF744
S315020040609BFB4EF2FA304EF6B022C4F20100C4F2C5
S3150200407001024AF20251018016704FF42541018075
S315020040800120FDF7BDFB40F22030C2F2002080F392
S315020040900A882068800723D555F80C0CB0F1007FFA
S315020040A01ED120694FF40071C0F3C300626901FAA0
S315020040B000F3C2F3C30081400020DA08CB080146B0
S315020040C0074642F005C800BFE7E802010FF005C047
S315020040D04FF0005243F005C0E2E802010FF005C0BE
S315020040E045F6A018C0F20028D8F800708FB1D8F8AB
S315020040F004003E46041D03E0013E04F10C0408D010
S3150200410060790028F8D154E90101091A00F051F941
S31502004110F2E7D8F80890B9F1000F13D0D8F80C00DE
S315020041204E4600F1080403E0013E04F1100409D0F2
S3150200413060790028F8D154E902022168121A00F0C7
S315020041403DF9F1E7FFF7D0FAFFF79EFD0320FFF7EF
S315020041509FFE4FF00E0E40F63050C4F24000002192
S3150200416020F8041B0FF005C00320FFF765FE0320AD
S31502004170FFF78EFE44F204000021C4F22000016023
S3150200418041608160C1600320FFF756FED8F810A097
S31502004190D5F8AC104422BAF1000F62F30701C5F854
S315020041A0AC1025D0D8F8141000234FF0200E4FF093
S315020041B0010C002404E000BF0134E3B29A4517D98A
S315020041C001EBC30251F83360526822F01F02203A13
S315020041D00EEB5210B0EB561FEED942F001006CF313
S315020041E00406C5F88430C5F88860C5F88C00E3E794
S315020041F0BFF35F8F0520C5F88000286940F4803040
S315020042002861BFF34F8FBFF36F8F2868C0032DD489
S3150200421000202867BFF34F8FE96E43F6E073C1F3C0
S315020042204E30CA08C1F3C9014E1C9107420100BFB4
S3150200423002EA030446F001E00C4400BF00BF00BFDF
S31502004240C5F84C4204F140440FF007C00028A0F123
S315020042500100A2F12002EBD1BFF34F8F286840F490
S3150200426080302860BFF34F8FBFF36F8F4EF210146A
S31502004270C4F20104D4F8C802800714D42078A0B18D
S315020042800120FFF705FE00BF94F9000010F1410F6F
S31502004290FADC0020207000BF20783F28FCD80120DD
S315020042A0FFF7CAFD01E0D4F8C802D4F8C8024007F5
S315020042B015D42079A8B10120FFF7EAFD00BF00BF9F
S315020042C094F9040010F1410FFADC0020207100BFBE
S315020042D020793F28FCD80120FFF7AEFD01E0D4F893
S315020042E0C8020220FDF78CFAA7B1D8F804004FF4F1
S315020042F08076041D04E000BF013F04F10C0409D0DE
S315020043006079B6EB002FF7D154E90101091A00F0E2
S3150200431050F8F1E7B9F1000F16D0D8F80C004FF4B7
S31502004320807700F1080404E0B9F1010904F11004F0
S315020043300AD06079B7EB002FF6D154E90202216860
S31502004340121A00F03BF8EFE740F6F854C2F20024E6
S31502004350204600F0FAF8204600F00FF9BFF34F8F1F
S31502004360BFF36F8F0020C5F83C0245F6A65045F60E
S31502004370A651C0F20020C0F20021BFF34F8F081AE7
S31502004380BFF36F8F8410012C0BDB45F6A655C0F2E6
S31502004390002500BF00BF00BF55F8040B8047013C53
S315020043A0FAD1FFF731FD0020BDE8F04700F000B872
S315020043B070470A46002100F077B8D4D4844641EA11
S315020043C0000313F0030349D1403A23D30B68036079
S315020043D04B6843608B688360CB68C3600B6903617B
S315020043E04B6943618B698361CB69C3610B6A036263
S315020043F04B6A43628B6A8362CB6AC3620B6B03634B
S315020044004B6B43638B6B8363CB6BC363403040312F
S31502004410403ADBD230320BD30B6803604B68436001
S315020044208B688360CB68C36010301031103AF3D2C8
S315020044300C3205D351F8043B40F8043B043AF9D256
S31502004440043208D0D2071CBF11F8013B00F8013B29
S3150200445001D30B8803806046704700BF082A13D336
S315020044608B07B1D010F00303AED0C3F10403D21A06
S31502004470DB071CBF11F8013B00F8013BA4D331F85E
S31502004480023B20F8023B9FE7043AD9D3013A11F8DE
S31502004490013B00F8013BF9D20B7803704B7843706D
S315020044A08B7883706046704770B4840746D0541E7A
S315020044B0002A41D0CDB2034602E0621EE4B314469E
S315020044C003F8015B9A07F8D1032C2ED9CDB245EA3F
S315020044D005250F2C45EA054519D9264603F1100292
S315020044E0103E0F2E42F8105C42F80C5C42F8085C53
S315020044F042F8045C02F11002F2D8A4F1100222F092
S315020045000F0204F00F041032032C13440DD91E4679
S315020045102246121F032A46F8045BFAD8221F22F00B
S315020045200302121D134404F003042CB1C9B21C4445
S3150200453003F8011BA342FBD170BC70471446034625
S31502004540C2E700210A2200F029B810B540F2523122
S3150200455040F20002C0F20021C0F200020446FFF758
S315020045602DFF40F2000040F20401C0F20000C0F24A
S3150200457000012044FFF71DFF10BD40F20801C0F202
S315020045800001401A40F6F451C2F200210860704759
S315020045900148006870470000F40D00222DE9F04141
S315020045A00346242A2BD8012A29D045F6D6350026D9
S315020045B0C0F200259E46985D2F1897F880409F19F5
S315020045C0240729D578782C1894F88040240729D511
S315020045D0B8782C1894F8804024072BD5F87804363E
S315020045E00EF1040E2F1897F880703F07E3D49C193A
S315020045F0A4F1010E4FF0000C2B2822D125E0404AEF
S315020046001624FFF7C5FF845019B100200B60BDE8E0
S31502004610F0810020BDE8F0817C1C4FF0000C2B28B5
S315020046200FD112E00EF1010EBC1C4FF0000C2B282C
S3150200463007D10AE00EF1020EFC1C4FF0000C2B28EB
S3150200464003D02D2804D14FF0010C20780EF102047C
S3150200465030280CD112F02F0F02BF207800F0DF00B5
S31502004660582848D0002A08BF0822302002E0002A33
S3150200467008BF0A2227466FF000460CEB0608461EC4
S31502004680392846F0200688BFA6F12600A0F130069A
S3150200469096421DD2B8FBF2F47B1E04FB1285002063
S315020046A00EE04CF0020C13F8017F7E1E392F46F005
S315020046B0200688BFA6F12607A7F13006964208D241
S315020046C0A042EED801D1AE42EBD800FB0260EAE787
S315020046D00020002918BF0B605FEACC7150EA00B0D7
S315020046E05FEA8C7105D506492222FFF751FF425037
S315020046F04046BDE8F081A71C607810222346BAE73F
S3150200470008000000000000000000545452205245E8
S31502004710474745530076696E5F7265736F6C7574B1
S31502004720696F6E5F73657400726561645F72656757
S315020047305F31366269740077726974655F726567A4
S315020047405F313662697420746F20706F77657220EC
S31502004750646F776E2063616D657261206661696C54
S3150200476065640D0A00202A2A2063616D6572615F05
S31502004770636F6E6669677572655F636C6F636B7391
S31502004780204641494C4544202A2A200D0A00202A67
S315020047902A20525F4949435F4D41535445525F5760
S315020047A07269746520415049204641494C4544206E
S315020047B02A2A200D0A00312E3000536574203078E3
S315020047C033303336207265676973746572206661A9
S315020047D0696C65640D0A0068616E646C655F65727A
S315020047E0726F7200202A2A2063616D6572615F739F
S315020047F0747265616D5F6F6666204641494C454439
S31502004800202A2A200D0A0063616D6572615F6F704E
S31502004810656E0076696E5F63616D6572615F737462
S3150200482061727400536574203078333033352072E8
S3150200483065676973746572206661696C65640D0AE1
S31502004840000D0A53656C6563742074686520726591
S31502004850736F6C7574696F6E3A0D0A312E20467548
S315020048606C6C20706172616C6C656C20646973702B
S315020048706C617920283130323478363030290D0A8D
S31502004880322E2056474120202836343020782034D4
S315020048903830290D0A332E2051564741202833320B
S315020048A030207820323430290D0A53656C656374E2
S315020048B03A00202A2A20525F4949435F4D41535408
S315020048C045525F4F70656E20415049204641494C22
S315020048D04544202A2A200D0A0063616D6572615FD4
S315020048E076696E5F7374617274204641494C454421
S315020048F0200D0A002063616D6572615F6D6F6465EC
S315020049005F73656C656374696F6E204641494C45F9
S3150200491044200D0A00202A2A20525F56494E5F4340
S3150200492061707475726553746172742041504920C6
S315020049304641494C4544202A2A200D0A0063616DEE
S315020049406572615F77726974655F6172726179001F
S3150200495063616D6572615F73747265616D5F6F66C7
S315020049606600284E554C4C2900202A2A2077726967
S3150200497074655F7265675F313662697420464149C4
S315020049804C4544202A2A200D0A00525F56494E5FA2
S31502004990436C6F7365204641494C45440D0A00201D
S315020049A02A2A20525F56494E5F436C6F7365204137
S315020049B05049204641494C4544202A2A200D0A00E6
S315020049C0202A2A2063616D6572615F777269746558
S315020049D05F6172726179204641494C4544202A2A18
S315020049E0200D0A0077726974655F7265675F3136FA
S315020049F062697420746F207475726E206F66662009
S31502004A0073747265616D2063616D657261206661A2
S31502004A10696C65640D0A006932635F636F6E747256
S31502004A206F6C5F696E6974204641494C4544200D9E
S31502004A300A00202A2A2063616D6572615F6F7065C4
S31502004A406E204641494C4544202A2A200D0A000D73
S31502004A500A52657475726E6564204572726F7220B1
S31502004A60436F64653A203078257820200D0A0020AD
S31502004A702A2A2063616D6572615F7365745F6D6971
S31502004A8070695F7669727475616C5F6368616E6E78
S31502004A90656C204641494C4544202A2A200D0A00CD
S31502004AA063616D6572615F6670735F7365740076CC
S31502004AB0696E5F7363616C655F696D6167652046E8
S31502004AC041494C4544200D0A000D0A4C6976652081
S31502004AD063616D6572612073747265616D696E677B
S31502004AE020737461727465640D0A00777269746565
S31502004AF05F7265675F313662697420746F20706F0A
S31502004B007765722075702063616D657261206661DA
S31502004B10696C65640D0A00525F4949435F4D415312
S31502004B205445525F436C6F7365204641494C454478
S31502004B300D0A000D0A53656C65637465642072651F
S31502004B40736F6C7574696F6E20697320696E766116
S31502004B506C696420210D0A005465726D696E616C80
S31502004B60000D0A5B4552525D20496E2046756E6302
S31502004B7074696F6E3A20257328292C20257300202C
S31502004B802A2A20726561645F7265675F31366269DF
S31502004B9074204641494C4544202A2A200D0A000D1C
S31502004BA00A53656C6563746564206D6F646520697C
S31502004BB07320696E76616C696420210D0A00536563
S31502004BC074203078333130382072656769737465C2
S31502004BD072206661696C65640D0A00202A2A2063C8
S31502004BE0616D6572615F73747265616D5F6F6E2070
S31502004BF04641494C4544202A2A200D0A0043686151
S31502004C006E676520746F206C6976652063616D65D9
S31502004C107261206D6F6465204641494C4544200D02
S31502004C200A00202A2A2063616D6572615F667073CD
S31502004C305F736574204641494C4544202A2A200D5B
S31502004C400A00536574203078333033372072656733
S31502004C506973746572206661696C65640D0A006326
S31502004C60616D6572615F73747265616D5F6F6E000F
S31502004C7063616D6572615F636F6E666967757265A2
S31502004C805F636C6F636B730077726974655F7265DD
S31502004C90675F3136626974206661696C65640D0A04
S31502004CA00063616D6572615F7365745F6D697069DA
S31502004CB05F7669727475616C5F6368616E6E656C4E
S31502004CC000202A2A2076696E5F63616D6572615FD4
S31502004CD07374617274204641494C4544202A2A2045
S31502004CE00D0A0077726974655F7265675F313662B5
S31502004CF0697420746F207475726E206F6E207374DF
S31502004D007265616D2063616D657261206661696CB1
S31502004D1065640D0A006932635F636F6E74726F6C4D
S31502004D205F696E697400202A2A20525F4949435FEF
S31502004D304D41535445525F526561642041504920AA
S31502004D404641494C4544202A2A200D0A002A2A2097
S31502004D50525F474C4344435F4275666665724368D9
S31502004D60616E676520415049204641494C454420C1
S31502004D702A2A0D0A0077726974655F7265675F3168
S31502004D803662697400202A2A20525F4949435F4DE0
S31502004D9041535445525F536C617665416464726552
S31502004DA0737353657420415049204641494C45442A
S31502004DB0202A2A200D0A00726561645F7265675FA8
S31502004DC03136626974206661696C65640D0A000D8C
S31502004DD00A2A2A2A2A2A2A2A2A2A2A2A2A2A2A2A4B
S31502004DE02A2A2A2A2A2A2A2A2A2A2A2A2A2A2A2A1B
S31502004DF02A2A2A2A2A2A2A2A2A2A2A2A2A2A2A2A0B
S31502004E002A2A2A2A2A2A2A2A2A2A2A2A2A2A2A2AFA
S31502004E102A2A2A2A2A2A2A2A2A2A2A2A2A2A2A2AEA
S31502004E202A0D0A2A20202052656E65736173204678
S31502004E305350204578616D706C652050726F6A65BB
S31502004E40637420666F7220725F6D6970695F637347
S31502004E5069204D6F64756C6520202020202020205B
S31502004E60202020202020202020202020202020203A
S31502004E7020202A0D0A2A2020204578616D706C6553
S31502004E802050726F6A6563742056657273696F6E1D
S31502004E9020257320202020202020202020202020B2
S31502004EA020202020202020202020202020202020FA
S31502004EB020202020202020202020202020202020EA
S31502004EC02020202A0D0A2A202020466C65782053AD
S31502004ED06F667477617265205061636B20566572E6
S31502004EE073696F6E202025642E25642E256420208A
S31502004EF020202020202020202020202020202020AA
S31502004F002020202020202020202020202020202099
S31502004F1020202020202020202A0D0A2A2A2A2A2A76
S31502004F202A2A2A2A2A2A2A2A2A2A2A2A2A2A2A2AD9
S31502004F302A2A2A2A2A2A2A2A2A2A2A2A2A2A2A2AC9
S31502004F402A2A2A2A2A2A2A2A2A2A2A2A2A2A2A2AB9
S31502004F502A2A2A2A2A2A2A2A2A2A2A2A2A2A2A2AA9
S31502004F602A2A2A2A2A2A2A2A2A2A2A0D0A52656637
S31502004F70657220746F20746865206163636F6D705B
S31502004F80616E79696E67202E6D642066696C652094
S31502004F90666F72204578616D706C652050726F6A1B
S31502004FA06563742064657461696C7320616E640D57
S31502004FB00A46535020557365722773204D616E75EC
S31502004FC0616C20666F72206D6F726520696E666F06
S31502004FD0726D6174696F6E2061626F757420725FA3
S31502004FE06D6970695F637369206472697665720DB3
S31502004FF00A000D0A54686973206578616D706C65E4
S315020050002070726F6A6563742064656D6F6E737467
S3150200501072617465732074686520626173696320C6
S3150200502066756E6374696F6E616C697479206F66FA
S31502005030204D49504920435349206F6E2052656ED8
S31502005040657361730D0A5241204D43557320757382
S31502005050696E672052656E65736173204653502EE2
S315020050602054686520493243206D6F64756C652053
S31502005070636F6E6669677572657320616E20657807
S315020050807465726E616C2063616D65726120736511
S315020050906E736F7220746F0D0A6F7065726174653C
S315020050A0207769746820746865204D4950492069E3
S315020050B06E746572666163652E20436170747572E3
S315020050C0656420696D616765206461746120697336
S315020050D02072656365697665642062792074686505
S315020050E0204D495049204353490D0A6D6F64756C32
S315020050F0652C207468656E2070726F6365737365C4
S3150200510064206279207468652056494E206D6F646A
S31502005110756C653A20636C6970706564207065729F
S31502005120204954552D522042542E3630312C2063BC
S315020051306F6E7665727465642066726F6D0D0A59BC
S31502005140436243722D34323220746F205247422C0E
S31502005150207363616C656420746F207468652075C2
S315020051607365722D73656C6563746564207265730D
S315020051706F6C7574696F6E2C20616E642073746F28
S3150200518072656420696E20534452414D2E0D0A54B5
S315020051906865207265736F6C7574696F6E206368DB
S315020051A0616E67652069732068616E646C65642050
S315020051B06279207468652056494E206D6F64756C5D
S315020051C0652C20616C6C6F77696E672064796E61FD
S315020051D06D6963206F75747075740D0A72657369F3
S315020051E07A696E6720776974686F75742072656371
S315020051F06F6E6669677572696E672074686520638B
S31502005200616D6572612073656E736F722E0D0A0D84
S315020052100A4265666F72652063686F6F73696E67AF
S31502005220207468652063616D657261206D6F6465C7
S315020052302C207468652075736572206973207072FC
S315020052406F6D7074656420766961207465726D692C
S315020052506E616C20746F2073656C6563742074686C
S31502005260650D0A6465736972656420696D616765B7
S31502005270207265736F6C7574696F6E2E2041667449
S31502005280657220746861742C207468652075736574
S31502005290722063616E2063686F6F736520746F207E
S315020052A0636170747572652061206C697665206928
S315020052B06D6167650D0A6F722061207465737420D3
S315020052C07061747465726E20627920747970696E89
S315020052D067202731272C202732272C206F72202780
S315020052E0332720746F2072657475726E20746F2076
S315020052F0746865206D61696E206D656E752E0D0A86
S31502005300436170747572656420696D6167657320A7
S31502005310617265207669657761626C6520617320CA
S31502005320726177206461746120696E2065327374DC
S315020053307564696F207573696E6720746865204DA0
S31502005340656D6F727920766965772E0D0A4966203A
S315020053506120506172616C6C656C20477261706885
S31502005360696373204C434420697320636F6E6E65D4
S31502005370637465642C2074686520696D61676520B5
S31502005380697320616C736F20646973706C617965EF
S3150200539064206F6E2D73637265656E2E0D0A0D0A9B
S315020053A0002063616D6572615F7265736F6C7574FF
S315020053B0696F6E5F736574204641494C4544200D02
S315020053C00A000D0A53656C6563742043616D65724C
S315020053D061204D6F64653A0D0A312E204C6976655F
S315020053E02063616D6572610D0A322E2054657374F5
S315020053F0207061747465726E0D0A302E20426163EC
S315020054006B20746F206D61696E206D656E750D0A75
S3150200541053656C6563743A0D0A00202A2A20525F8E
S3150200542056494E5F4F70656E2041504920464149AC
S315020054304C4544202A2A200D0A0063616D6572617B
S315020054405F6D6F64655F73656C656374696F6E002B
S3150200545030313233343536373839414243444546A2
S31502005460000000002003E0018002E0014001F0009C
S31502005470F7240100093E2500061800001C01140746
S3150200548013080C000700000002007C000400000064
S315020054907054000200000000C40C0022885400026E
S315020054A02C590002D4D4D4D49854000202001A0112
S315020054B00A000A00000000000000000000000000D0
S315020054C000000040000000000C050C060C07FFDF80
S315020054D0FFDF0000000002000000000000000000E4
S315020054E0000000103F0301003F0301003F030100DB
S315020054F03F0301003F0301003F0301003F03010098
S315020055003F0301003F0301003F0301003F03010087
