S01A000052656E657361735F4375705F56315F305F302E73726563AE
S3150200000000040022B90D0002C10B0002C90D000254
S31502000010C90D0002C90D0002C90D0002C90D000278
S31502000020000000000000000000000000C90D0002F0
S31502000030C90D000200000000C90D0002C90D000230
S3150200004041F28830C0F20020046800BF00BF00BF42
S315020000504FF485710122204600F0FEF84FF4FA7043
S315020000604FF47A7100F068FD4FF485710022204644
S3150200007000F0F2F84FF4FA704FF47A7100F05CFD7A
S31502000080E6E7D4D4D4D4D4D4022818BF704780B5B6
S3150200009040F22C4041F25C61C2F20020C0F2002123
S315020000A000F00EF80120BDE8804000F019BED4D45D
S315020000B080B5FFF7C5FF002080BDD4D4D4D4D4D4F4
S315020000C080B545F25422C5F24F020260084600F09E
S315020000D03BF9002080BDD4D40146002000220A60EC
S315020000E07047D4D4D4D4D4D480B5084600F02CF9C1
S315020000F0002080BDD4D4D4D470B586B001A80490B3
S3150200010003A814460D46ADF8081001920126ADF873
S315020001100C6000F085F940F28840EFF31081C2F2DC
S31502000120002086F3108802683AB940F6145200237A
S31502000130C4F2400213704023137002680132026057
S3150200014081F31088E10340F60001C4F240010FD5A5
S315020001506FF03F02EBB202EA95020A4452F82360BC
S3150200016026F4803642F8236024F4803642F823606F
S315020001706FF03F0202EA95021144EAB241F82240C8
S315020001800122EFF3108182F31088026812B102682D
S31502000190013A0260006838B940F614500022C4F2EF
S315020001A0400002708022027081F31088002006B09F
S315020001B070BDD4D4D4D4D4D404200023C4F24000D5
S315020001C0CFF6FF7340EAD100C9B220F01B000068E7
S315020001D043EA104020FA01F1002001F001011170FA
S315020001E07047D4D4D4D4D4D410B56FF00100CBB2B6
S315020001F000EAD11001210C2401FA03FE0101C4F226
S31502000200400444EA001C4FF48030012A625800FA86
S3150200021003F004D122EA000040EA0E0203E022EAD9
S315020002200E0141EA00020020CCF8002010BDD4D411
S315020002306FF03F00CBB200EA910040F6000100EBFE
S315020002408300C4F2400141580020C1F340011170FD
S315020002507047D4D4D4D4D4D410B5CBB201209840AC
S315020002606FF0010E84B20EEAD110002A40F20802A3
S315020002704FF4803C4FEA0011C4F240024FF00000F6
S3150200028008BF0CFA03F4545010BDD4D4D4D4D4D439
S3150200029080B56FF0010040F2000C00EAD110C4F202
S315020002A0400C010103EA020E62EA03025CF8010055
S315020002B04EEA000E002002EA0E024CF8012080BD32
S315020002C06FF0010000EAD11004210001C4F24001DE
S315020002D009580020090C11807047D4D4D4D4D4D440
S315020002E06FF0010003EA020C00EAD11023EA0201D0
S315020002F00C230201C4F2400300204CEA014199504A
S315020003007047D4D4D4D4D4D46FF00100042300EAC5
S31502000310D110C4F2400301010020595811807047E0
S315020003206FF0010003EA020C00EAD11023EA02018F
S3150200033008230201C4F2400300204CEA014199500D
S315020003407047D4D4D4D4D4D4F0B581B0044600F0E6
S3150200035067F840F2884CEFF31081C2F2002C0120BC
S3150200036080F31088DCF8000038B940F614500022F9
S31502000370C4F24000027040220270DCF80000013034
S31502000380CCF8000081F31088208850B340F6000EA6
S315020003900021C4F2400E6FF03F030BE000BF00BF26
S315020003A003EA9205D2B27544013145F8220020884B
S315020003B0814216D2606800EBC10250F83100928881
S315020003C0C503EDD503EA9205D6B2754455F82670F3
S315020003D027F4803745F8267020F4803745F82670D2
S315020003E0DEE70120EFF3108180F31088DCF80000CD
S315020003F020B1DCF800000138CCF80000DCF800007F
S3150200040038B940F614500022C4F24000027080222D
S31502000410027081F3108801B0F0BDD4D4D4D4D4D400
S315020004202DE9F04F81B004460088002867D04EF6C9
S315020004304C4B0025C4F2010B4FF0010A04E000BF49
S315020004402088013585425AD241F29C6642F2400822
S315020004500027C0F20026C4F220080CE000BF00BF4D
S3150200046088F80000C820012100F066FB013708F178
S315020004700208032FE4D0606836F8021B00EBC500C1
S3150200048082888A42F2D100689BF8001000F0B850C8
S315020004900AFA07F9B0F1807F09EA010018D158B9C2
S315020004A0012000F0F5FB9BF8000040EA09008BF8FA
S315020004B00000012000F0C0FB98F900000028D5D406
S315020004C098F8000040F08000CAE700BF00BF00BFF6
S315020004D058B1012000F0DCFB9BF8000020EA09007D
S315020004E08BF80000012000F0A7FB98F90000B0F19C
S315020004F0FF3FBBDC98F8000000F07F00B0E701B0D8
S31502000500BDE8F08FD4D4D4D44EF22401C4F2010152
S315020005108878098801F00F02A2F1080103293BD865
S31502000520DFE801F0022C101E40F20041C2F2002167
S3150200053051F820004AF6AB21CAF6AA21A0FB010116
S31502000540480830E040F20041C2F2002151F8200092
S315020005504AF6AB21CAF6AA21A0FB0101C80822E08D
S3150200056040F20041C2F2002151F820004AF6AB21C6
S31502000570CAF6AA21A0FB0101080914E040F20041D3
S31502000580C2F2002151F820004AF6AB21CAF6AA218E
S31502000590A0FB0101880806E040F20041C2F20021F8
S315020005A051F82000D04040F29841C2F20021086082
S315020005B07047D4D4D4D4D4D42DE9F04F81B04EF2BE
S315020005C0FA384AF20150C4F20108CFF6FF7040F23F
S315020005D0004B0230A8F80000C2F2002B46F600409B
S315020005E04EF25505C0F2DC2041F2002143F20063CF
S315020005F0C4F20105C0F27A014FF40042C0F26E1352
S315020006004CF6002744F2553448F2004C44F2006698
S31502000610C3F69A378BE80F0040F6000043F6000156
S31502000620C1F2DE34C1F2D77CC2F2C336CBE904276B
S31502000630C2F6AF70C1F69C41CBE90664CBF828102E
S31502000640CBE908C015F82F0C35F8311C01F00F0262
S31502000650A2F1080103292BD8DFE801F002200C16CB
S315020006604AF6AB215BF82000CAF6AA21A0FB0101DB
S31502000670480820E04AF6AB215BF82000CAF6AA2118
S31502000680A0FB0101C80816E04AF6AB215BF8200080
S31502000690CAF6AA21A0FB010108090CE04AF6AB2121
S315020006A05BF82000CAF6AA21A0FB0101880802E035
S315020006B05BF82000D04040F2984A4EF60044C2F25F
S315020006C0002AC4F201040A214EF60147CAF80000C4
S315020006D04FF65060CFF6FF70C4F20107215409208D
S315020006E085F84D00207818B93878800700F0D38154
S315020006F0207840B901202070C820012100F01CFAA0
S3150200070020780128FCD10020387020704AF2015965
S31502000710002005F81F0C05F8230C00BF00BF00BF20
S3150200072015F8190C0007FBD542F602314EF61450A5
S31502000730C0F20101C5F8731040F2234125F8071CE7
S31502000740002205F80B2C4FF60211C5F8571040F29D
S31502000750514125F8091CCEF200004EF20001BFF30A
S315020007604F8FBFF36F8F0368CEF2010123F400337C
S315020007700360C0F83C22BFF34F8FBFF36F8F0A6846
S3150200078022F440520A60BFF34F8FBFF36F8F15F802
S31502000790412C02F0F802013205F8412C00BF00BFDD
S315020007A015F8412CD206FBD40A6842F440520A607C
S315020007B0BFF34F8FBFF36F8F0168890312D4BFF364
S315020007C04F8FBFF36F8F0021C0F83C12BFF34F8FDC
S315020007D0BFF36F8F016841F400310160BFF34F8FA1
S315020007E0BFF36F8F002005F82B0C00BF00BF00BFC0
S315020007F015F8190C8006FBD54CF200040020C4F251
S31502000800130420702078207820786068FA2807D0B0
S31502000810FA20C1F6006000BF60606168FA29FBD168
S31502000820A0687D2808D07D20CEF2001000BF00BF50
S31502000830A060A1687D29FBD143F23240C3F2232096
S3150200084045F8350C42F2201025F8310C052005F842
S315020008502F0C15F82F0C35F8311C01F00F02A2F1FE
S31502000860080103292BD8DFE801F002200C164AF60C
S31502000870AB215BF82000CAF6AA21A0FB01014808B9
S3150200088020E04AF6AB215BF82000CAF6AA21A0FBBB
S315020008900101C80816E04AF6AB215BF82000CAF649
S315020008A0AA21A0FB010108090CE04AF6AB215BF87C
S315020008B02000CAF6AA21A0FB0101880802E05BF823
S315020008C02000D040CAF800001E200121012700F0B6
S315020008D033F960686FF39F20652828BF277015F8E3
S315020008E02F0C35F8311C01F00F02A2F10801032981
S315020008F02BD8DFE801F002200C164AF6AB215BF892
S315020009002000CAF6AA21A0FB0101480820E04AF607
S31502000910AB215BF82000CAF6AA21A0FB0101C80898
S3150200092016E04AF6AB215BF82000CAF6AA21A0FB24
S31502000930010108090CE04AF6AB215BF82000CAF671
S31502000940AA21A0FB0101880802E05BF82000D04042
S3150200095042F20001CAF80000C4F200010120A1F827
S315020009600090BFF35F8F08724FF42540BFF35F8F8D
S31502000970088095F8850040F0400085F8850000BFA4
S3150200098095F98500B0F1FF3FFADC032085F87F0078
S31502000990C92085F8850095F8850000F0BF0085F826
S315020009A0850000BF00BF00BF95F985000028FBD473
S315020009B0012005F8020C002005F8170C802005F826
S315020009C0170C287840F04000287000BF00BF00BF17
S315020009D095F90000B0F1FF3FFADC022005F8010CA0
S315020009E0CA202870287800F0BF00287000BF00BF18
S315020009F095F900000028FBD4A87840F04000A870C2
S31502000A0095F90200B0F1FF3FFADC00206870C720BA
S31502000A10A870A87800F0BF00A87000BF00BF00BF92
S31502000A2095F902000028FBD4287A40F0400028728B
S31502000A3095F90800B0F1FF3FFADC0120E871C62003
S31502000A402872287A00F0BF00287200BF00BF00BFDC
S31502000A5095F908000028FBD4A87A40F04000A87255
S31502000A6095F90A00B0F1FF3FFADC01206872CA204C
S31502000A70A872A87A00F0BF00A87200BF00BF00BF2C
S31502000A8095F90A000028FBD44FF42540A8F8000087
S31502000A9001B0BDE8F08F4FF47A7000F001F835E648
S31502000AA07047D4D4D4D4D4D4B0B542F22404C820E6
S31502000AB0C4F2200401210025257100F03DF82570BD
S31502000AC0207808B12FF005C0207840F0020020708F
S31502000AD020788007FCD4002004F8020C00BF00BF77
S31502000AE014F8020C08B12FF005C84FF0030E0020CF
S31502000AF004F11C0100BF00BF11F8102002F07F02B2
S31502000B0001F8102000BF00BF11F91020002AFBD403
S31502000B1001300FF00FC8012000F0BAF84EF64C4132
S31502000B200120C4F2010100220A70BDE8B04000F0C3
S31502000B3083B8D4D4D4D4D4D440F2984241F2002318
S31502000B40C2F20022C0F27A03484312689A4212D3D2
S31502000B5044F23F21C0F20F0111444DF68362C4F202
S31502000B601B32A1FB0212910CA0FB0101002918BF46
S31502000B704FF0FF301BE04CF60021C3F69A31B1FB71
S31502000B80F2F148F63812C0F24102904205D24FF411
S31502000B907A725043B0FBF1F009E0B0FBF1F14FF489
S31502000BA07A734FF0FF30914238BF01FB03F0002801
S31502000BB008BF704700F000B801380028FCD1704722
S31502000BC0F0B581B04CF2201540F23447C4F200056C
S31502000BD00024C2F2002755F8200C296801EA000613
S31502000BE006E000BF00BF00BF01340437152C09D050
S31502000BF026FA04F0C007F7D039680029F4D0204657
S31502000C008847F1E745F8106C28683042FCD101B0FC
S31502000C10F0BDD4D4D4D4D4D441F6F000C0F200202E
S31502000C200088002808BF70474CF20031C4F2000168
S31502000C3008607047D4D4D4D4EFF31081012282F332
S31502000C40108840F28C42C2F2002232F8103023B1F0
S31502000C5032F81030013B22F8103032F8102012B16F
S31502000C6081F3108870474EF2FA3241F6F20CC4F262
S31502000C700102C0F2002C13883CF8100043F425430D
S31502000C8023EA0000108081F310887047D4D4D4D4AC
S31502000C9010B5EFF31081012282F3108840F28C42E4
S31502000CA0C2F2002232F8103083B94EF2FA3E41F611
S31502000CB0F20CC4F2010EC0F2002CBEF800403CF861
S31502000CC01030234343F42543AEF8003032F8103097
S31502000CD0013322F8103081F3108810BDD4D4D4D455
S31502000CE070B543F650450446C4F2000500BF00BF86
S31502000CF0287808B12FF005C04FF0870025F82C0C94
S31502000D004FF0100005F8500C8CB10020FFF7C0FF21
S31502000D104EF253000126C4F2010006700020FFF7CE
S31502000D208BFF05F8306C00BF28780007FCD4012041
S31502000D3005F84E0C002005F84F0C00BF00BF00BF9F
S31502000D40287808B12FF005C042F20350C0F2050020
S31502000D50C4B14FF40C7125F8081C00BF00BF00BFD8
S31502000D602978C907FCD145F80C0C012005F8100CAE
S31502000D7047F2A83125F83C1C05F83A0C112005F873
S31502000D80500C70BD45F80C0C012005F8100C47F20A
S31502000D90A83125F83C1C05F83A0C00BF00BF00BF7D
S31502000DA015F8500CC007FBD1287808B12FF009C0FE
S31502000DB0012005F8400C70BD00F00AF8FFF778F93B
S31502000DC0FEE7D4D4D4D4D4D400BE7047D4D4D4D479
S31502000DD02DE9F0474EF6145540F20120CEF20005F9
S31502000DE0C0F20E004EF200042860CEF20104BFF3F8
S31502000DF04F8FBFF36F8F55F8141CC1F303500128B0
S31502000E005FEA1F9211F00F0F5FEA0F9111422168FC
S31502000E1011D102280FD241F0040020604EF20800E0
S31502000E20BFF34F8FCEF20000BFF36F8F016841F41C
S31502000E308031016002E021F004002060BFF34F8F91
S31502000E40BFF36F8F4FF4700040F200016867002015
S31502000E50C0F2002145F80C1C0026FFF715F9FFF732
S31502000E60ABFB4EF2FA304EF6B022C4F20100C4F2E7
S31502000E7001024AF20251018016704FF425410180A7
S31502000E800120FFF701F940F20000C2F2002080F3D0
S31502000E900A882068800723D555F80C0CB0F1007F2C
S31502000EA01ED120694FF40071C0F3C300626901FAD2
S31502000EB000F3C2F3C30081400020DA08CB080146E2
S31502000EC0074642F005C800BFE7E802010FF005C079
S31502000ED04FF0005243F005C0E2E802010FF005C0F0
S31502000EE041F2C468C0F20028D8F800708FB1D8F871
S31502000EF004003E46041D03E0013E04F10C0408D042
S31502000F0060790028F8D154E90101091A00F051F973
S31502000F10F2E7D8F80890B9F1000F13D0D8F80C0010
S31502000F204E4600F1080403E0013E04F1100409D024
S31502000F3060790028F8D154E902022168121A00F0F9
S31502000F403DF9F1E7FFF7E0FAFFF7AEFD0320FFF701
S31502000F509FFE4FF00E0E40F63050C4F240000021C4
S31502000F6020F8041B0FF005C00320FFF765FE0320DF
S31502000F70FFF78EFE44F204000021C4F22000016055
S31502000F8041608160C1600320FFF756FED8F810A0C9
S31502000F90D5F8AC104422BAF1000F62F30701C5F886
S31502000FA0AC1025D0D8F8141000234FF0200E4FF0C5
S31502000FB0010C002404E000BF0134E3B29A4517D9BC
S31502000FC001EBC30251F83360526822F01F02203A45
S31502000FD00EEB5210B0EB561FEED942F001006CF345
S31502000FE00406C5F88430C5F88860C5F88C00E3E7C6
S31502000FF0BFF35F8F0520C5F88000286940F4803072
S315020010002861BFF34F8FBFF36F8F2868C0032DD4BB
S3150200101000202867BFF34F8FE96E43F6E073C1F3F2
S315020010204E30CA08C1F3C9014E1C9107420100BFE6
S3150200103002EA030446F001E00C4400BF00BF00BF11
S31502001040C5F84C4204F140440FF007C00028A0F155
S315020010500100A2F12002EBD1BFF34F8F286840F4C2
S3150200106080302860BFF34F8FBFF36F8F4EF210149C
S31502001070C4F20104D4F8C802800714D42078A0B1BF
S315020010800120FFF705FE00BF94F9000010F1410FA1
S31502001090FADC0020207000BF20783F28FCD801200F
S315020010A0FFF7CAFD01E0D4F8C802D4F8C802400727
S315020010B015D42079A8B10120FFF7EAFD00BF00BFD1
S315020010C094F9040010F1410FFADC0020207100BFF0
S315020010D020793F28FCD80120FFF7AEFD01E0D4F8C5
S315020010E0C8020220FEF7D0FFA7B1D8F804004FF4D9
S315020010F08076041D04E000BF013F04F10C0409D010
S315020011006079B6EB002FF7D154E90101091A00F014
S3150200111050F8F1E7B9F1000F16D0D8F80C004FF4E9
S31502001120807700F1080404E0B9F1010904F1100422
S315020011300AD06079B7EB002FF6D154E90202216892
S31502001140121A00F03BF8EFE740F2A044C2F2002484
S31502001150204600F0F6F8204600F00BF9BFF34F8F59
S31502001160BFF36F8F0020C5F83C0241F64A1041F6E4
S315020011704A11C0F20020C0F20021BFF34F8F081AB5
S31502001180BFF36F8F8410012C0BDB41F64A15C0F2B8
S31502001190002500BF00BF00BF55F8040B8047013C85
S315020011A0FAD1FFF739FD0020BDE8F04700F000B89C
S315020011B070470A46002100F077B8D4D4844641EA43
S315020011C0000313F0030349D1403A23D30B680360AB
S315020011D04B6843608B688360CB68C3600B690361AD
S315020011E04B6943618B698361CB69C3610B6A036295
S315020011F04B6A43628B6A8362CB6AC3620B6B03637D
S315020012004B6B43638B6B8363CB6BC3634030403161
S31502001210403ADBD230320BD30B6803604B68436033
S315020012208B688360CB68C36010301031103AF3D2FA
S315020012300C3205D351F8043B40F8043B043AF9D288
S31502001240043208D0D2071CBF11F8013B00F8013B5B
S3150200125001D30B8803806046704700BF082A13D368
S315020012608B07B1D010F00303AED0C3F10403D21A38
S31502001270DB071CBF11F8013B00F8013BA4D331F890
S31502001280023B20F8023B9FE7043AD9D3013A11F810
S31502001290013B00F8013BF9D20B7803704B7843709F
S315020012A08B7883706046704770B4840746D0541EAC
S315020012B0002A41D0CDB2034602E0621EE4B31446D0
S315020012C003F8015B9A07F8D1032C2ED9CDB245EA71
S315020012D005250F2C45EA054519D9264603F11002C4
S315020012E0103E0F2E42F8105C42F80C5C42F8085C85
S315020012F042F8045C02F11002F2D8A4F1100222F0C4
S315020013000F0204F00F041032032C13440DD91E46AB
S315020013102246121F032A46F8045BFAD8221F22F03D
S315020013200302121D134404F003042CB1C9B21C4477
S3150200133003F8011BA342FBD170BC70471446034657
S31502001340C2E710B540F2400140F20002C0F20021AD
S31502001350C0F200020446FFF731FF40F2000040F2FD
S315020013600001C0F20000C0F200012044FFF721FF95
S3150200137010BD40F20801C0F20001401A40F29C4141
S31502001380C2F20021086070472C0400225C1600029B
S31502001390681600020008011C000100000008011C7A
S315020013A0010100000008011C030100000004011CE9
S315020013B0070100001040000008010000040C0000B4
S315020013C00A010000000C01150B010000000C010BC4
S315020013D00C010000000C010B0D010000000C010BBA
S315020013E00E010000000C010B0F010000004000007E
S315020013F0000200001040000001020000000001058A
S3150200140008020000000401050902000000080100AC
S315020014100A020000000001000B02000000000100A9
S315020014200C020000000001000D0200000000010095
S315020014300E020000000001000F020000000C010B6A
S3150200144000030000000C010B01030000000C010B5D
S315020014500203000010400000030300000000011315
S3150200146007040000000401130804000040040107F9
S3150200147009040000400401070A040000000C010BE5
S3150200148003050000000C010B04050000000C010B13
S3150200149005050000000C010B06050000000C010BFF
S315020014A007050000000C010B08050000000C010BEB
S315020014B009050000000C010B0A05000004040000E7
S315020014C006060000000C010B07060000000C010BCB
S315020014D008060000000C010B09060000000C010BB7
S315020014E00A060000000C010B0B060000000C010BA3
S315020014F00C060000000C010B0D060000000C010B8F
S315020015000E060000000C010B0F0600000008011C6D
S31502001510030800000008011C08080000000C010B6B
S315020015200D080000000C01130E080000000C011348
S315020015300F080000000C010B000A0000000C010B52
S31502001540010A0000000C010B020A0000000C010B4C
S31502001550030A0000000C010B040A0000000C010B38
S31502001560050A0000000C010B060A0000000C010B24
S31502001570080A0000000C010B090A0000000C010B0E
S315020015800A0A0000000C010B0B0A0000000C010BFA
S315020015900C0A0000000C010B0D0A0000000C010BE6
S315020015A00E0A00000008010B0F0A0000000C010BD6
S315020015B0000C0000000C010B010C0000000C010BDA
S315020015C0020C0000000C010B030C0000000C010BC6
S315020015D0040C0000000C010B050C0000000C010BB2
S315020015E0060C0000000C010B070C0000000C010B9E
S315020015F0080C0000000C010B090C0000000C010B8A
S315020016000A0C0000000C010B0B0C0000000C010B75
S315020016100C0C0000000C010B0D0C0000000C010B61
S315020016200E0C0000000C010B000D0000000C011551
S31502001630010D0000000C0115020D0000000C011541
S31502001640030D0000000C0115040D00000008011531
S31502001650050D000010000115070D000059000000DD
S315020016609413000200000000C1000002D90000022B
S31502001670E9000002F9000002B9010002E9010002D4
S31502001680310200025902000291020002C102000266
S31502001690E10200020903000221030002020403041C
S315020016A00404D4D400000068000000680000008032
S315020016B000000080000000700000007000000022A0
S315020016C0000000220B000000DC16000219000000D8
S315020016D06017000204000000A41600020000006861
S315020016E0000000680001000D0000006800000068AC
S315020016F00001000D000000800000008000010008CB
S315020017000000008000000080000100080000007058
S31502001710000000700001000A000000700000007066
S315020017200001000A000000000000000001000005A0
S31502001730000000200000002001000004000000223A
S3150200174000000022000000032C040022A004002254
S3150200175000000003A0040022A004002200000003EF
S315020017600000006800000068000000900001090DFA
S3150200177000000068000000680000007800010B0D00
S315020017800000006800000068000000270001020D4A
S315020017900000006800000068400000020001010D20
S315020017A0000000800000008000000090000109088F
S315020017B000000080000000800000007800010B0895
S315020017C000000080000000800000002700010208DF
S315020017D000000080000000804000000200010108B5
S315020017E00000007000000070000000900001090A6D
S315020017F000000070000000700000007800010B0A73
S315020018000000007000000070000000270001020ABC
S315020018100000007000000070400000020001010A92
S315020018200000000000000000000000900101090510
S3150200183000000000000000000000007801010B0516
S315020018400000000000000000000000270100020561
S315020018500000000000000000400000020100010537
S315020018600000002000000020000000900101090491
S3150200187000000020000000200000007801010B0497
S3150200188000000020000000200000002701000204E2
S3150200189000000020000000204000000201000104B8
S315020018A0000000220000002200000090000109034F
S315020018B000000022000000220000007800010B0355
S315020018C000000022000000220000002700000203A0
S315020018D00000002200000022400000020000010376
S315020018E0A0040022A004002240000002000001031E
S315020018F0000001000200080010002000000004069B
S31502001900362E342E30004275696C742077697468FD
S315020019102052656E6573617320416476616E6365FC
S315020019206420466C657869626C6520536F667477CD
S31502001930617265205061636B6167652076657273BB
S30F02001940696F6E20362E342E300039
S30902C9F040FFFFFFFFFF
S30902C9F044EFFFFFFF0B
S30902C9F0C0FFFFFFFD81
S30902C9F0C4FFFFFFFF7B
S30902C9F120000000001A
S30902C9F1240000000016
S70502000DB932
