S01A000052656E657361735F4375705F56315F305F302E73726563AE
S3150200000020800022A12B000299290002B12B0002B6
S31502000010B12B0002B12B0002B12B0002B12B000260
S31502000020000000000000000000000000B12B0002EA
S31502000030B12B000200000000B12B0002B12B00021E
S3150200004069130002F1150002B1170002F918000245
S31502000050910A0002610B0002E10B0002B10C0002E0
S31102000060A92100023122000289220002BE
S3070200006C010188
S315020000702DE9F04381B000EB400048F24C03C2F296
S315020000800023154603EBC003894603F11808D86A14
S31502000090022817D001280CD048B9D8F80C40D8F855
S315020000A01000E143A04264D90844A84267D2002660
S315020000B086E0D8F80C40D8F81000E143A04230D9C7
S315020000C0084432E0D8F80C40002623E000BF00BF07
S315020000D0D8F8082008441044D8E90112121B9042AD
S315020000E050EA3280A84250EA3587081949463A460C
S315020000F002F058FF3819D8F80810411AA5EB07057F
S3150200010050EA11843E44B944002DBFF35F8FC8F80C
S315020001100C4055D0D8F81000E143A042D8D9084483
S31502000120DAE7D8F8082008441044D8E90112A842B0
S3150200013050EA3586151B0819AE4209D2494632469F
S3150200014002F030FFBFF35F8F3019C8F80C0037E0BA
S3150200015049462A4602F026FF771BD8F8040009EB27
S3150200016005013A4602F01EFFBFF35F8FC8F80C7016
S3150200017026E0D8F8082008441044A84297D3D8E9C4
S3150200018001010E1B2044B54209D249462A4602F015
S3150200019009FFBFF35F8F6019C8F80C000FE04946EC
S315020001A0324602F0FFFEAF1BD8F8040009EB060147
S315020001B03A4602F0F7FEBFF35F8FC8F80C702E4680
S315020001C0304601B0BDE8F083F0B581B048F24C0587
S315020001D00C46C2F200252B78532B37D00646A821AF
S315020001E02846174602F0D9FE03202861686143F2C9
S315020001F0932048F2F401C0F20020A861C2F2002165
S31502000200E9614FF4806129620021A9626962E962AB
S3150200021048F2F44228664FF0100E43F27010C2F212
S3150200022000226A66C5F868E02967E9666967BFF36E
S315020002305F8FC0F200200F3010F8011905F8011B7C
S315020002400FF007C03A463046BFF35F8FEFF31185D2
S315020002504FF0200181F311882146FFF709FF85F34C
S31502000260118801B0F0BDD4D42DE9F04F9BB0904671
S315020002700F464FF0000A4FF0FF3B16AD06A9169146
S315020002804021179103901A900592CDE918AA08E029
S31502000290CDF860A000BF00BF1998B0F1FF3F40F350
S315020002A0358217F8010B25281ED0002800F02E8271
S315020002B0DDE917314A1C9A4205D8169B5854189202
S315020002C0199801301990DDE917028242E4D1169994
S315020002D01A98FFF779FF18998842D9D0CDF864B0F9
S315020002E0DAE700BF00BF00BF4FF0000902E00137A6
S315020002F0002008BB3878A0F1230101200D29F8D887
S31502000300DFE801F00E0D0D0D0D0D0D0D110D0A0D8F
S315020003100D1400BF00BF00BF49F00109E7E7E8E797
S3150200032049F00809E3E749F00409E0E749F0020960
S31502000330DDE700BF00BF00BF3978A1F13A0010F136
S315020003400A0F01D2002011E000200A4600BF00BFBA
S3150200035017F8011F00EB8000A1F13A0302EB4000FF
S3150200036013F10B0FA0F130000A46F1D82E290FD156
S315020003703A4612F8011F2A290DD1D8F80010023781
S315020003800A1DC8F800200C68012121E000BF00BF49
S31502000390002100241CE01178A1F13A0313F10A0F9F
S315020003A002D20021002412E0002400BF00BF00BFD9
S315020003B012F8013F04EB8407A3F13A0601EB470169
S315020003C016F10B0FA1F130041946F1D80121174697
S315020003D017F8012B02F0FB03682BF9D0A2F15803A0
S315020003E0202B1BD8DFE803F0121111111111111184
S315020003F0111111354611111111111111111111118C
S315020004007D11118C11271111120045E7D8F8001041
S315020004100A1DC8F800200968102213E0252A7FF475
S315020004203BAFDDE91720411C91423FF64CAF169ACD
S31502000430252313541CE0D8F800100A1DC8F8002022
S3150200044009680A22CDE900092846234600F070F918
S3150200045022E7DDE91730411CD8F80020994202F163
S315020004600403C8F800303FF62EAF169B12681A54E2
S31502000470189125E7D8F800104CF6CD460A1DC8F8A3
S315020004800020D1F80080CCF6CC46C8F100014246E5
S31502000490B8F1000F48BF0A460A2A04914FF001013B
S315020004A00ADB00BF00BF00BFA2FB0635632A01F1CB
S315020004B001014FEAD502F7D88C4254EA818A4FF0FD
S315020004C0FF35002855D0B8F1000F5FEA5F9109F0B9
S315020004D0040241EA9201A0EB010B5FEA89764DD450
S315020004E070E0D8F800001022011DC8F8001001685B
S315020004F008230820CDE9000A284600F019F9CBE6C0
S31502000500D8F80000021DC8F80020006843F2A412C1
S315020005100028C0F2002250EA12865FEA018506E050
S31502000520CDF860A01998013CB0F1FF3F1FDD16F827
S31502000530010B002C5FEA1581C8B1C1B9DDE917319B
S315020005404A1C9A4205D8169B58541892199801309B
S315020005501990DDE917028242E4D116991A98FFF73B
S3150200056033FE18998842DBD0CDF864B0DAE716ADCF
S3150200057092E64FF0000B5FEA897623D514BB1998F1
S3150200058000284FD4B8F1FF3F53DD5FEA49706FD5BB
S31502000590DDE91720411C914206D8169A2B231354E3
S315020005A01891199801301990DDE9170282425FD13C
S315020005B016991A98FFF708FE1899884257D1002013
S315020005C0189055E05FEAC970D9D1BBF1000F0BD183
S315020005D0D5E700BF00BF00BF002018901998ABF105
S315020005E0010BB0F1FF3FCADDBBF1000FC7D0DA4500
S315020005F0C5D2DDE91720411C914206D8169A20235E
S3150200060013541891199801301990DDE917028242A4
S31502000610E4D116991A98FFF7D7FD18998842DBD0CC
S315020006201995DBE74FF0000AAB4616ADDDF81480EC
S3150200063032E6DDE91720411C914206D8169A2D238F
S3150200064013541891199801301990DDE91702DDF853
S315020006501480824210D116991A98FFF7B5FD18999F
S31502000660884202D10020189006E0199504E01995F7
S31502000670CDF81080DDF814801998002812D4002EC7
S3150200068015D4199800280DD416AE0A2230460499BC
S315020006902346CDE900B900F04BF84FF0000AAB460D
S315020006A03546F9E54FF0000AAB4616ADF4E509F01A
S315020006B001002043E5D1BBF1000F09D1E1E700BFFC
S315020006C0002018901998ABF1010BB0F1FF3FD8DD6D
S315020006D0BBF1000FD5D0DA45D3D2DDE91720411C94
S315020006E0914206D8169A302313541891199801305C
S315020006F01990DDE917028242E4D116991A98FFF79A
S3150200070063FD18998842DBD01995DBE71998012811
S3150200071009DB189A1AB106A90398FFF755FDDDE918
S3150200072018010844199019981BB0BDE8F08FD4D46B
S315020007302DE9F04F81B015468B4691421F4604467D
S31502000740DDF828904FF0010007D3594600BF00BFDD
S31502000750B1FBF5F10130A942FAD2874257EA808805
S31502000760B9F1000F0B9935D011F0010032D188078B
S315020007704FF0200048BF30202021002F50EA01868A
S315020007804FF0FF3A08E000BF0020A060E068A9F140
S315020007900109B0F1FF3F1DDDB9F1000F1AD0C845BE
S315020007A018D2D4E90120411C914205D82268165478
S315020007B0A160E0680130E060D4E901028242E5D13D
S315020007C021682069FFF700FDA1688842DCD0C4F8E1
S315020007D00CA0DBE7E068002841D4012602E000BF56
S315020007E0013F6E43022FFBD2BBFBF6F0A842F8D2C2
S315020007F043F2EE27C0F20027D4E90120BBFBF6FA4A
S31502000800411C914207D8226817F80A301354A16096
S31502000810E0680130E060D4E9010282420FD121682A
S315020008202069FFF7D1FCA168884205D10020A060AB
S3150200083005E000BF00BF00BF4FF0FF30E060E06898
S31502000840002806D4B6FBF5F00AFB16BBB5420646EF
S31502000850D2D90B98C00718BFB9F1000F02D101B067
S31502000860BDE8F08F4FF0000A4FF0FF362027A9F1BE
S3150200087001054D4538BFC845F1D2D4E90120411CD6
S31502000880914205D822681754A160E0680130E06001
S31502000890D4E9010282420AD121682069FFF794FC59
S315020008A0A168884202D1C4F808A000E0E660E068C8
S315020008B0A946B0F1FF3FDADCD1E7D4D4D4D4D4D4FC
S315020008C082B080B582B0CDE9042304AA019201AABE
S315020008D0FFF7CAFC02B0BDE8804002B07047D4D42C
S315020008E010B501F019F9044680B143F29C2143F296
S315020008F0DF2243F2D313C0F20021C0F20022C0F27B
S3150200090000230020FFF7DCFF204610BD43F23E2104
S315020009100020C0F20021FFF7D3FF204610BDD4D439
S3150200092010B501F061FB044670B143F29C2143F21B
S31502000930CF2243F26423C0F20021C0F20022C0F2A9
S3150200094000230020FFF7BCFF43F2F3110020C0F2A0
S315020009500021FFF7B5FF204610BDD4D4D4D4D4D499
S3150200096070B584B005460E4600200390CDE901001D
S3150200097001A9284601F0D0FB28B143F281130446AF
S31502000980C0F2002312E0039848F21F517043C5F2E9
S31502000990EB110122A0FB01012846490901F02CFBBB
S315020009A0C8B143F2AB130446C0F2002343F29C21C2
S315020009B043F2BA22C0F20021C0F200220020FFF761
S315020009C07FFF43F215210020C0F20021FFF778FFD6
S315020009D0204604B070BD0024F3E7D4D4D4D4D4D4D2
S315020009E043F285210020C0F20021FFF769FF48F299
S315020009F00C5443F26431C2F20024C0F200212046B4
S31502000A00FFF76EFF2046FFF78BFF14212046FFF704
S31502000A10A7FF43F20030C0F20020046800BF00BF07
S31502000A204FF485710122204600F04EFA4FF4FA7017
S31502000A304FF47A7101F06CFF4FF485710022204663
S31502000A4000F042FA4FF4FA704FF47A7101F060FF47
S31502000A50E6E7D4D4D4D4D4D4022818BF704780B5DC
S31502000A6048F2045043F24C61C2F20020C0F2002167
S31502000A7000F05EF90120BDE8804002F025B8D4D42A
S31502000A8080B5FFF7ADFF002080BDD4D4D4D4D4D432
S31502000A902DE9F0418AB04FF07041EFF3038001EB8C
S31502000AA0006047F2044C48F29453C4F2340C8215A7
S31502000AB0C2F200230016012153F80280DCF800304E
S31502000AC0DCF84020CDE90013910602924FF00001B6
S31502000AD003910FD5DCF80010C94311F0180F01D1AC
S31502000AE0002306E0DCF80010C1F3C1410CEB8101E2
S31502000AF0CB6A039342F08022D8F80C10049142F09C
S31502000B000101CCF840104CF20031C4F2000151F858
S31502000B10202022F4803241F8202051F82000D8F813
S31502000B201000694658B103460DF1140C93E8F4001F
S31502000B308CE8F400024691E8F800F8C200E00846A4
S31502000B40D8F808108847D8F8100018B105A991E816
S31502000B50EC00ECC00AB0BDE8F081D4D4D4D4D4D42D
S31502000B6010B588B04FF07041EFF3038001EB0060DF
S31502000B7048F294518015C2F200210C584FF47F417D
S31502000B80ADF8001047F27001C4F234010A6801920E
S31502000B90E368039302F400324A604CF20031C4F275
S31502000BA00001425822F4803242504058206960B116
S31502000BB0D0E900C2CDE904C2D0E90231CDE906315D
S31502000BC09DE80E1080E80E1000E06846A16888478E
S31502000BD0206910B104AC1ECC1EC008B010BDD4D41E
S31502000BE070B588B04FF07041EFF3038001EB0060FF
S31502000BF048F2945147F250028015C2F20021C4F223
S31502000C0034020C581668116B156C21F0807353630D
S31502000C1025F0807353644CF20032C4F2000283580A
S31502000C2023F4803383508058E0680390F0074FF036
S31502000C3001008DF800001DD0206900228DF80120E8
S31502000C40019160B1D0E900C2CDE904C2D0E9023116
S31502000C50CDE906319DE80E1080E80E1000E06846E8
S31502000C60A1688847206928B10DF1100C9CE80E1086
S31502000C7080E80E10B00718D5206901218DF8011001
S31502000C80019550B10DF1100C90E84E008CE84E0023
S31502000C909DE84E0080E84E0000E06846A16888475D
S31502000CA0206910B104AE4ECE4EC008B070BDD4D489
S31502000CB010B588B04FF07041EFF3038001EB00608E
S31502000CC048F294518015C2F200210C5847F25001A5
S31502000CD0C4F23401096802218DF80010E16803911B
S31502000CE04CF20031C4F20001425822F480324250E2
S31502000CF040582069FF218DF801104FF00001019143
S31502000D0060B1D0E900C2CDE904C2D0E90231CDE931
S31502000D1006319DE80E1080E80E1000E06846A168D4
S31502000D208847206910B104AC1ECC1EC008B010BDA5
S31502000D3080B545F25422C5F24F020260084600F021
S31502000D403BF9002080BDD4D40146002000220A606F
S31502000D507047D4D4D4D4D4D480B5084600F02CF944
S31502000D60002080BDD4D4D4D470B586B001A8049036
S31502000D7003A814460D46ADF8081001920126ADF8F7
S31502000D800C6000F085F948F29050EFF31081C2F240
S31502000D90002086F3108802683AB940F614520023FE
S31502000DA0C4F24002137040231370026801320260DB
S31502000DB081F31088E10340F60001C4F240010FD529
S31502000DC06FF03F02EBB202EA95020A4452F8236040
S31502000DD026F4803642F8236024F4803642F82360F3
S31502000DE06FF03F0202EA95021144EAB241F822404C
S31502000DF00122EFF3108182F31088026812B10268B1
S31502000E00013A0260006838B940F614500022C4F272
S31502000E10400002708022027081F31088002006B022
S31502000E2070BDD4D4D4D4D4D404200023C4F2400058
S31502000E30CFF6FF7340EAD100C9B220F01B0000686A
S31502000E4043EA104020FA01F1002001F0010111707D
S31502000E507047D4D4D4D4D4D410B56FF00100CBB239
S31502000E6000EAD11001210C2401FA03FE0101C4F2A9
S31502000E70400444EA001C4FF48030012A625800FA0A
S31502000E8003F004D122EA000040EA0E0203E022EA5D
S31502000E900E0141EA00020020CCF8002010BDD4D495
S31502000EA06FF03F00CBB200EA910040F6000100EB82
S31502000EB08300C4F2400141580020C1F34001117081
S31502000EC07047D4D4D4D4D4D410B5CBB20120984030
S31502000ED06FF0010E84B20EEAD110002A40F2080227
S31502000EE04FF4803C4FEA0011C4F240024FF000007A
S31502000EF008BF0CFA03F4545010BDD4D4D4D4D4D4BD
S31502000F0080B56FF0010040F2000C00EAD110C4F285
S31502000F10400C010103EA020E62EA03025CF80100D8
S31502000F204EEA000E002002EA0E024CF8012080BDB5
S31502000F306FF0010000EAD11004210001C4F2400161
S31502000F4009580020090C11807047D4D4D4D4D4D4C3
S31502000F506FF0010003EA020C00EAD11023EA020153
S31502000F600C230201C4F2400300204CEA01419950CD
S31502000F707047D4D4D4D4D4D46FF00100042300EA49
S31502000F80D110C4F240030101002059581180704764
S31502000F906FF0010003EA020C00EAD11023EA020113
S31502000FA008230201C4F2400300204CEA0141995091
S31502000FB07047D4D4D4D4D4D4F0B581B0044600F06A
S31502000FC067F848F2905CEFF31081C2F2002C012020
S31502000FD080F31088DCF8000038B940F6145000227D
S31502000FE0C4F24000027040220270DCF800000130B8
S31502000FF0CCF8000081F31088208850B340F6000E2A
S315020010000021C4F2400E6FF03F030BE000BF00BFA9
S3150200101003EA9205D2B27544013145F822002088CE
S31502001020814216D2606800EBC10250F83100928804
S31502001030C503EDD503EA9205D6B2754455F8267076
S3150200104027F4803745F8267020F4803745F8267055
S31502001050DEE70120EFF3108180F31088DCF8000050
S3150200106020B1DCF800000138CCF80000DCF8000002
S3150200107038B940F614500022C4F2400002708022B1
S31502001080027081F3108801B0F0BDD4D4D4D4D4D484
S315020010902DE9F04F81B004460088002867D04EF64D
S315020010A04C4B0025C4F2010B4FF0010A04E000BFCD
S315020010B02088013585425AD243F2A46642F240089C
S315020010C00027C0F20026C4F220080CE000BF00BFD1
S315020010D088F80000C820012101F01AFC013708F146
S315020010E00208032FE4D0606836F8021B00EBC50045
S315020010F082888A42F2D100689BF8001000F0B8504C
S315020011000AFA07F9B0F1807F09EA010018D158B945
S31502001110012001F0B1FC9BF8000040EA09008BF8BF
S315020011200000012001F07CFC98F900000028D5D4CB
S3150200113098F8000040F08000CAE700BF00BF00BF79
S3150200114058B1012001F098FC9BF8000020EA090042
S315020011508BF80000012001F063FC98F90000B0F161
S31502001160FF3FBBDC98F8000000F07F00B0E701B05B
S31502001170BDE8F08FD4D4D4D4F0B50269002313703D
S31502001180402302691370026913785B06FCD5C023FB
S3150200119013700268036908254EF6185C526ACEF28D
S315020011A0000C127942F0E0021A7402680369526A6C
S315020011B0D27842F0E0025A7402680369526A92785F
S315020011C062F306159D7002680569526A13785278B1
S315020011D0012B5FEA1F9343EA420242F00402EA70DD
S315020011E0026844F24025C0F20F0503695268AA421A
S315020011F04FF0770208BF6FF008025A7100230269A6
S315020012009371B3230269D3714EF2001291F9114020
S315020012104B7BCEF20002002C4FEA031303D41519BE
S3150200122085F8003304E004F00F05654405F8043C34
S3150200123048F2945E4CF20033C2F2002EC4F200036E
S3150200124001274EF8240053F8245025F4803543F83C
S31502001250245053F82450650904F01F04BFF35F8F2E
S3150200126002EB850607FA04F4C6F8804142F82540E7
S3150200127091F90F404D7B002C4FEA051503D4161940
S3150200128086F8005304E004F00F06664406F8045C90
S315020012904EF8240053F8245025F4803543F82450A0
S315020012A053F82450650904F01F04BFF35F8F02EB65
S315020012B0850607FA04F4C6F8804142F8254091F9FA
S315020012C010404D7B002C4FEA051503D4161986F8FB
S315020012D0005304E004F00F06664406F8045C4EF878
S315020012E0240053F8245025F4803543F8245053F84B
S315020012F02450650904F01F04BFF35F8F02EB8506D5
S3150200130007FA04F4C6F8804142F8254091F90E40E6
S31502001310497B002C4FEA011103D4171987F80013F1
S3150200132005E004F00F0505EB0C0707F8041C4EF860
S31502001330240004F01F0753F82410012621F48031FB
S3150200134043F8241053F82410610906FA07F7BFF38D
S315020013505F8F02EB8103C3F8807142F821709F21EF
S3150200136000690170F0BDD4D4B0B582B04FF07041BF
S31502001370EFF3038001EB00604CF200328015C4F2F9
S315020013800002835823F4803383508058EFF303809E
S3150200139001EB006048F294518015C2F200210D580B
S315020013A095F82D0040B195F82E00012845D1002070
S315020013B085F82E0002B0B0BDA869022804D82869B3
S315020013C0017941F040010171E86901280ED12869CD
S315020013D0017941F0100101712869017941F0080192
S315020013E001712869017901F0EF01017128688069AC
S315020013F0B8B1296995F82920012A12D1AB69042BC3
S315020014000FD38268033B1331006894686A699BB202
S31502001410A047A96903200339C5E90701012085F818
S315020014202E002868406AC07901283DD1AC6BA4B170
S31502001430D4E90001CDE9000110E0E869002800F0D6
S31502001440CD802868406AC07901285FD1AC6BB4B3FD
S31502001450D4E90001CDE9000132E06C46E86B206078
S31502001460052020712868406930B195F8291019B90C
S3150200147081680068096988472868806938B195F8E3
S315020014802910012903D18168006809698847696BB7
S3150200149020468847A86B00281CBFDDE90012C0E978
S315020014A00012002085F82B002869C07C8DF8000008
S315020014B09DF80000012085F82D0002B0B0BD6C46F3
S315020014C0E86B2060052020712868406930B195F8E4
S315020014D0291019B9816800680969884728688069EE
S315020014E038B195F82910012903D181680068096984
S315020014F08847696B20468847A86B00281CBFDDE930
S315020015000012C0E90012002085F82B00E8690128C4
S3150200151019D0022807D0032853D12869017941F04E
S31502001520400101714DE02869017941F01001017114
S315020015302869017941F0080101712869017901F0F0
S31502001540EF0101713DE095F82A00012831D12868A2
S315020015504EF28013CEF2000390F90F00420900F01A
S315020015601F01012000FA01F143F82210BFF34F8F49
S31502001570BFF36F8F2969CA7942F08002CA7129695D
S315020015800A7942F010020A7129690A7902F0F70211
S315020015900A7129690A7902F0EF020A71296904229D
S315020015A04A7029694A7902F0FE024A7185F82C00CE
S315020015B007E02869417A01F0F7014172286908219A
S315020015C04170D5E90401C07C2A6A8854D5E907012D
S315020015D0013801F10101C5E9070101D002B0B0BD30
S315020015E02869017901F0BF01017102B0B0BDD4D4FE
S315020015F070B582B04FF07041EFF3038001EB0060EB
S315020016004CF200368015C4F20006825922F480326A
S3150200161082518059EFF3038001EB006048F2945146
S315020016208015C2F200210D5895F82700A8B395F847
S315020016302610032907D195F82810022903D195F817
S31502001640301000297CD095F82440012817D128684B
S315020016504069A0B1296995F8292082B9AA6972B1AF
S3150200166001F112028168AB8B00688E686969B04726
S315020016700020A969C5E90701012085F82F0028691C
S31502001680847495F8280095F82710013085F828000B
S31502001690481E85F8270002B070BD95F8290000287B
S315020016A04ED12868406AC079012832D195F82B00BC
S315020016B078BB286A68B3AC6B24B1D4E90001CDE9E2
S315020016C0000100E06C46E86B206005202071286866
S315020016D0406930B195F8291019B98168006809691D
S315020016E088472868806938B195F82910012903D1FD
S315020016F08168006809698847696B20468847A86B34
S3150200170000281CBFDDE90012C0E90012002085F89E
S315020017102B0095F82F00012803D1002085F82F0011
S315020017200CE0E86950B1D5E904012A6A895C817442
S31502001730D5E9071001300139C5E90710E86908B192
S3150200174002B070BD2869C17901F07F01C1712869B3
S315020017506FF0BE0100BF00BF90F90720B2F1FF3F54
S3150200176003DC002901F10101F6D1286890F9100085
S3150200177056F8201021F4803146F8201056F8200041
S31502001780286890F9100000280BD44EF2802300F04E
S315020017901F014009CEF20003012202FA01F143F8C9
S315020017A020102869C17941F04001C17102B070BDB3
S315020017B0B0B582B04FF07041EFF3038001EB0060E9
S315020017C048F294518015C2F200210D582868406AE9
S315020017D0C07901282DD1AC6B24B1D4E90001CDE941
S315020017E0000100E06C46E86B206005202071286845
S315020017F0406930B195F8291019B9816800680969FC
S3150200180088472868806938B195F82910012903D1DB
S315020018108168006809698847696B20468847A86B12
S3150200182000281CBFDDE90012C0E90012002085F87D
S315020018302B0095F82900012806D195F827000128E2
S3150200184002D195F8300080B3E86970BB95F82A009A
S31502001850012822D128684EF28013CEF2000301221B
S3150200186090F90F0000F01F01400902FA01F143F856
S315020018702010BFF34F8FBFF36F8F2869C17941F0F4
S315020018808001C1712869042141702869417901F0FA
S31502001890FE01417185F82C2007E02869417A01F0A2
S315020018A0F70141722869082141702869C17901F05E
S315020018B0BF01C17128696FF0BE0100BF00BF00BF42
S315020018C0C279520603D5002901F10101F8D14FF080
S315020018D07041EFF3038001EB00604CF2003180159A
S315020018E0C4F20001425822F480324250405802B0FB
S315020018F0B0BDD4D4D4D4D4D470B582B04FF0704134
S31502001900EFF3038001EB006048F294518015C2F2B6
S3150200191000210C5821694A7A4B7A02F01F0003F023
S31502001920E00310284B7202F0030121D20022114378
S3150200193026D0012684F82B6020690025C571204631
S315020019402168FFF719FC94F82600A16984F828009B
S315020019502069C4E90751B32184F82C5084F82A502F
S31502001960C171A56B25B3D5E90001CDE9000120E0DF
S315020019702269527812F0400F5FEA1F921143D8D1C2
S31502001980102803D321694A78520616D4010706D4D1
S3150200199094F82C20012A36D110F0040233D0E069E3
S315020019A010B994F82B00D0B300291ED401203DE0D3
S315020019B06D46E06B28602E7143E0012084F82B000F
S315020019C00820487020682369406A41790278807944
S315020019D042EA011141EAC01040F00200D8702069C3
S315020019E0417941F0010141714DE00020A169C4E94C
S315020019F0070194F8261084F8281084F82C0084F83D
S31502001A002A0001200FE040073DD52068406AC079D0
S31502001A10012838D10421204600F04AF833E094F830
S31502001A20290080F003002169B322CA71A56B25B192
S31502001A30D5E90012CDE9001200E06D46E16B29609E
S31502001A4028712068406930B194F8291019B9816863
S31502001A500068096988472068806938B194F82910B6
S31502001A60012903D18168006809698847616B2846A4
S31502001A708847A06B00281CBFDDE90012C0E90012EE
S31502001A80002084F82B004FF07041EFF3038001EB46
S31502001A9000604CF200318015C4F20001425822F473
S31502001AA080324250405802B070BDD4D4D4D4D4D47B
S31502001AB0B0B582B0856B044625B1D5E90002CDE901
S31502001AC0000200E06D46E06B2860297120684069DB
S31502001AD030B194F8291019B98168006809698847F4
S31502001AE02068806938B194F82910012903D18168E8
S31502001AF0006809698847616B28468847A06B0028F9
S31502001B001CBFDDE90012C0E90012002084F82B0098
S31502001B1002B0B0BDD4D4D4D42DE9F0470D46097C29
S31502001B20044601220D295FEA9F9002FA01F1E16063
S31502001B3065602074287C42F20001C4F2320144F24C
S31502001B400209C4F23209002701EB0020A06068698D
S31502001B506061A869E061A7614FF00048D5F81CA052
S31502001B6049F8F22CEFF3108682F31088287C011FC5
S31502001B7028FA00F006296FF0006151EA30A043F21C
S31502001B801001C4F220010A681040086008681E208D
S31502001B90012100F0BDFE86F31088207B00070DD0E0
S31502001BA00120EFF3108180F31088A089B9F8002094
S31502001BB022EA0000A9F8000081F31088A0684FF419
S31502001BC025410160A068C762A068C763A0688764F0
S31502001BD0287A2978A268C0050329696808BF00F532
S31502001BE08030D0620139A068C0F81080A068C0F8C1
S31502001BF01480A068C0F81880A0684762A06887624F
S31502001C00A068DAF81820C261A068DAF81C2002621D
S31502001C104FF0FF32A0688166A068416628780028E6
S31502001C2004BF696802EB51020228DAF850C008D3F1
S31502001C30A368E9689F6E07F1010721B1B94202D292
S31502001C404A1E00211FE05B6B6668B9425FEA3F9756
S31502001C5000295FEA1F91367813F0100F03F00C0388
S31502001C605FEA1F90042B5FEA1F93032E50EA8380DC
S31502001C70002857EA11800021C0F2033100281CBF58
S31502001C800021C0F20221A0684265A0688265287818
S31502001C90042803D3A068C265A0680266DAF8500079
S31502001CA0C8BB9AF80000012816D12B789AF80120B1
S31502001CB0022B03D0032B03D1032305E0092303E000
S31502001CC00923002A08BF0623100140EA821018449D
S31502001CD040EA0C0040F4807C9AF8020001281AD1EE
S31502001CE02B789AF80320022B04D0032B05D14FF44C
S31502001CF0403308E04FF4102305E04FF41023002A86
S31502001D0008BF4FF4C023100540EA8250184440EA47
S31502001D100C0040F0807C60684FF0060E0027C26916
S31502001D20F64602F1300305E001370433BEF1010E37
S31502001D3000D112E092F84800F840C007F4D03846C5
S31502001D40042F08BF0320032F08BF0420A66806EB52
S31502001D5080001E68013EC664E6E7287C0D2802D88C
S31502001D60A06800224264A06800228263A068C0F8CC
S31502001D708820DAF8500040B99AF820009AF8212013
S31502001D80400340EA42704CEA000C9AF84800A26806
S31502001D9000284FF4A00008BF4FF4AA001064287868
S31502001DA0012804D1A0680022C264A0680265A06866
S31502001DB0C0F834C09AF854009AF85520A368520124
S31502001DC0DF6A42EA001041F0030241F001013843A2
S31502001DD0D862A068026348F29452A068C2F2002256
S31502001DE00163D4E90201C1604EF2001095F9123086
S31502001DF04CF20031CEF20000C4F20001002B1CD4DA
S31502001E006F7CC61801253F0186F8007342F823400D
S31502001E1051F8237027F4803741F8237051F8237064
S31502001E205F0903F01F03BFF35F8F00EB870605FA16
S31502001E3003F3C6F8803140F827309AF92830002B90
S31502001E401DD49AF82270C61801253F0186F8007340
S31502001E5042F8234051F8237027F4803741F8237063
S31502001E6051F823705F0903F01F03BFF35F8F00EB86
S31502001E70870605FA03F3C6F8803140F827309AF947
S31502001E802930002B1DD49AF82370C61801253F016C
S31502001E9086F8007342F8234051F8237027F48037FE
S31502001EA041F8237051F823705F0903F01F03BFF353
S31502001EB05F8F00EB870605FA03F3C6F8803140F818
S31502001EC027309AF92A30002B1DD49AF82470C618A6
S31502001ED001253F0186F8007342F8234051F823702A
S31502001EE027F4803741F8237051F823705F0903F015
S31502001EF01F03BFF35F8F00EB870605FA03F3C6F8ED
S31502001F00803140F827309AF92B30002B1DD49AF8ED
S31502001F102570C61801253F0186F8007342F8234052
S31502001F2051F8237027F4803741F8237051F8237053
S31502001F305F0903F01F03BFF35F8F00EB870605FA05
S31502001F4003F3C6F8803140F827309AF92C30002B7B
S31502001F501DD49AF82670C61801253F0186F800732B
S31502001F6042F8234051F8237027F4803741F8237052
S31502001F7051F823705F0903F01F03BFF35F8F00EB75
S31502001F80870605FA03F3C6F8803140F827309AF936
S31502001F902D30002B1DD49AF82770C6183F0186F8FB
S31502001FA0007342F82340012751F8232022F480329D
S31502001FB041F8232051F82310590903F01F03BFF3F8
S31502001FC05F8F00EB810207FA03F3C2F8803140F813
S31502001FD0213045F254010020C0F247012160BDE8DC
S31502001FE0F087D4D4D4D4D4D4D0E9021200204A60E3
S31502001FF07047D4D4D4D4D4D4F0B58468A36E03F194
S31502002000010321B1994202D24D1E002322E010267D
S31502002010676B06EA02164568F74099425FEA3F9CFB
S3150200202000295FEA1F932E7817F0100F07F00C07AE
S315020020305FEA1F95042F5FEA1F97032E55EA8787EB
S315020020404FF0FF35002F5CEA1383002B4FF002039B
S3150200205053EA1393002B02F0030CD4F830E045D078
S31502002060540604D58468256C45F480052564022A45
S315020020701A4627D11A462BB38468A26E02F10105CD
S3150200208011B1A9421A461DD3A942646B45685FEA9B
S315020020903F9200295FEA1F912D7814F4801F04F401
S315020020A040245FEA1F96B4F5802F5FEA1F94032D42
S315020020B056EA8484002C52EA118100294FF002016B
S315020020C051EA11922EF44031BCF1010F41EA03416B
S315020020D05EEA01838768BCF1000F23F040734FF07C
S315020020E0000018BF43EA02613963F0BD16074FF0DC
S315020020F0040658BF0226970701D4674604E004EB9C
S3150200210086040127E56484683E4304EB8604E5649D
S315020021105406A7D4ABE7D4D48268526E01328A60E1
S315020021208068D0F82CC04EF22000C4F20100036889
S31502002130808843EA000200F00F00120703F00F0244
S3150200214008D448F2CC53C2F200231B6803FA00F00B
S31502002150D0401EE070B500F0070E032548F2CC56BB
S3150200216005FA0EF44FF0010EC2F20026082838BF17
S315020021700EFA00F403F007001B0705FA00F03568B3
S3150200218005FB04F358BF0EFA02F0B3FBF0F0BDE80C
S315020021907040CCF3C352D0404860002001220A703E
S315020021A07047D4D4D4D4D4D448F22C5048F23851FF
S315020021B0C2F20020C2F2002100680A6801320A60F7
S315020021C0096831B948F230510022C2F20021C1E950
S315020021D0002280B582B040F200010122C2F2002143
S315020021E00A704A70416839B18268019203218DF8FA
S315020021F0001041686846884743F24840C4F23400FA
S31502002200016841F0010101604FF07041EFF3038074
S3150200221001EB00604CF200318015C4F20001425815
S3150200222022F480324250405802B080BDD4D4D4D475
S3150200223080B582B048F22C50C2F200200068416894
S3150200224039B18268019201218DF800104168684611
S31502002250884743F24840C4F23400016841F0020163
S3150200226001604FF07041EFF3038001EB00604CF226
S3150200227000318015C4F20001425822F480324250E5
S31502002280405802B080BDD4D480B582B048F22C50FA
S31502002290C2F200200068416839B1826801920221C7
S315020022A08DF8001041686846884743F24840C4F2F8
S315020022B03400016841F0040101604FF07041EFF310
S315020022C0038001EB00604CF200318015C4F200017C
S315020022D0425822F480324250405802B080BDD4D4D3
S315020022E04EF22401C4F201018878098801F00F0236
S315020022F0A2F1080103293BD8DFE801F0022C101EE7
S3150200230048F22001C2F2002151F820004AF6AB2120
S31502002310CAF6AA21A0FB0101480830E048F22001D2
S31502002320C2F2002151F820004AF6AB21CAF6AA21D0
S31502002330A0FB0101C80822E048F22001C2F20021F6
S3150200234051F820004AF6AB21CAF6AA21A0FB0101E8
S31502002350080914E048F22001C2F2002151F82000D7
S315020023604AF6AB21CAF6AA21A0FB0101880806E0BB
S3150200237048F22001C2F2002151F82000D04048F272
S31502002380CC51C2F2002108607047D4D4D4D4D4D43C
S315020023902DE9F04F81B04EF2FA384AF20150C4F2FA
S315020023A00108CFF6FF7048F2200B0230A8F80000B1
S315020023B0C2F2002B46F600404EF25505C0F2DC2072
S315020023C041F2002143F20063C4F20105C0F27A0130
S315020023D04FF40042C0F26E134CF6002744F2553415
S315020023E048F2004C44F20066C3F69A378BE80F00B7
S315020023F040F6000043F60001C1F2DE34C1F2D77C9A
S31502002400C2F2C336CBE90427C2F6AF70C1F69C41CD
S31502002410CBE90664CBF82810CBE908C015F82F0CD7
S3150200242035F8311C01F00F02A2F1080103292BD85D
S31502002430DFE801F002200C164AF6AB215BF8200019
S31502002440CAF6AA21A0FB0101480820E04AF6AB2100
S315020024505BF82000CAF6AA21A0FB0101C80816E013
S315020024604AF6AB215BF82000CAF6AA21A0FB0101BD
S3150200247008090CE04AF6AB215BF82000CAF6AA214D
S31502002480A0FB0101880802E05BF82000D04048F278
S31502002490CC5A4EF60044C2F2002AC4F201040A21C2
S315020024A04EF60147CAF800004FF65060CFF6FF70AD
S315020024B0C4F201072154092085F84D00207818B985
S315020024C03878800700F0D381207840B90120207047
S315020024D0C820012100F01CFA20780128FCD1002036
S315020024E0387020704AF20159002005F81F0C05F8D1
S315020024F0230C00BF00BF00BF15F8190C0007FBD55F
S3150200250042F602314EF61450C0F20101C5F87310BC
S3150200251040F2234125F8071C002205F80B2C4FF642
S315020025200211C5F8571040F2514125F8091CCEF2A6
S3150200253000004EF20001BFF34F8FBFF36F8F0368A7
S31502002540CEF2010123F400330360C0F83C22BFF34C
S315020025504F8FBFF36F8F0A6822F440520A60BFF3AF
S315020025604F8FBFF36F8F15F8412C02F0F80201323C
S3150200257005F8412C00BF00BF15F8412CD206FBD44A
S315020025800A6842F440520A60BFF34F8FBFF36F8F5F
S315020025900168890312D4BFF34F8FBFF36F8F0021F7
S315020025A0C0F83C12BFF34F8FBFF36F8F016841F43F
S315020025B000310160BFF34F8FBFF36F8F002005F824
S315020025C02B0C00BF00BF00BF15F8190C8006FBD507
S315020025D04CF200040020C4F2130420702078207804
S315020025E020786068FA2807D0FA20C1F6006000BF9A
S315020025F060606168FA29FBD1A0687D2808D07D2039
S31502002600CEF2001000BF00BFA060A1687D29FBD1F9
S3150200261043F23240C3F2232045F8350C42F2201031
S3150200262025F8310C052005F82F0C15F82F0C35F876
S31502002630311C01F00F02A2F1080103292BD8DFE8B1
S3150200264001F002200C164AF6AB215BF82000CAF60E
S31502002650AA21A0FB0101480820E04AF6AB215BF85B
S315020026602000CAF6AA21A0FB0101C80816E04AF614
S31502002670AB215BF82000CAF6AA21A0FB01010809DA
S315020026800CE04AF6AB215BF82000CAF6AA21A0FBB1
S315020026900101880802E05BF82000D040CAF8000079
S315020026A01E200121012700F033F960686FF39F2095
S315020026B0652828BF277015F82F0C35F8311C01F054
S315020026C00F02A2F1080103292BD8DFE801F002204C
S315020026D00C164AF6AB215BF82000CAF6AA21A0FB2B
S315020026E00101480820E04AF6AB215BF82000CAF651
S315020026F0AA21A0FB0101C80816E04AF6AB215BF845
S315020027002000CAF6AA21A0FB010108090CE04AF63C
S31502002710AB215BF82000CAF6AA21A0FB01018808BA
S3150200272002E05BF82000D04042F20001CAF8000045
S31502002730C4F200010120A1F80090BFF35F8F087276
S315020027404FF42540BFF35F8F088095F8850040F06F
S31502002750400085F8850000BF95F98500B0F1FF3F7E
S31502002760FADC032085F87F00C92085F8850095F8F4
S31502002770850000F0BF0085F8850000BF00BF00BFDE
S3150200278095F985000028FBD4012005F8020C0020EB
S3150200279005F8170C802005F8170C287840F0400041
S315020027A0287000BF00BF00BF95F90000B0F1FF3FDF
S315020027B0FADC022005F8010CCA202870287800F0FD
S315020027C0BF00287000BF00BF95F900000028FBD4A7
S315020027D0A87840F04000A87095F90200B0F1FF3FDA
S315020027E0FADC00206870C720A870A87800F0BF0045
S315020027F0A87000BF00BF00BF95F902000028FBD4F5
S31502002800287A40F04000287295F90800B0F1FF3F9F
S31502002810FADC0120E871C6202872287A00F0BF008F
S31502002820287200BF00BF00BF95F908000028FBD43C
S31502002830A87A40F04000A87295F90A00B0F1FF3F6D
S31502002840FADC01206872CA20A872A87A00F0BF00DA
S31502002850A87200BF00BF00BF95F90A000028FBD48A
S315020028604FF42540A8F8000001B0BDE8F08F4FF400
S315020028707A7000F001F835E67047D4D4D4D4D4D4B3
S31502002880B0B542F22404C820C4F220040121002576
S31502002890257100F03DF82570207808B12FF005C0AB
S315020028A0207840F00200207020788007FCD40020B7
S315020028B004F8020C00BF00BF14F8020C08B12FF096
S315020028C005C84FF0030E002004F11C0100BF00BF33
S315020028D011F8102002F07F0201F8102000BF00BF9D
S315020028E011F91020002AFBD401300FF00FC8012085
S315020028F000F0C2F84EF64C410120C4F2010100225A
S315020029000A70BDE8B04000F08BB8D4D4D4D4D4D485
S3150200291048F2CC5241F20023C2F20022C0F27A03FC
S31502002920484312689A4212D344F23F21C0F20F0181
S3150200293011444DF68362C4F21B32A1FB0212910CC2
S31502002940A0FB0101002918BF4FF0FF301BE04CF637
S315020029500021C3F69A31B1FBF2F148F63812C0F201
S315020029604102904205D24FF47A725043B0FBF1F025
S3150200297009E0B0FBF1F14FF47A734FF0FF30914268
S3150200298038BF01FB03F0002808BF704700F000B80B
S3150200299001380028FCD17047F0B581B04CF2201501
S315020029A048F23C57C4F200050024C2F2002755F84B
S315020029B0200C296801EA000606E000BF00BF00BF3E
S315020029C001340437152C09D026FA04F0C007F7D0D3
S315020029D039680029F4D020468847F1E745F8106C9B
S315020029E028683042FCD101B0F0BDD4D4D4D4D4D4BA
S315020029F080B54FF00B0E4CF2003043F25861C4F230
S31502002A000000C0F2002100BF31F8022B002A18BFD5
S31502002A10026004300FF009C080BDD4D4D4D4D4D41B
S31502002A20EFF31081012282F3108848F2C052C2F2FB
S31502002A30002232F8103023B132F81030013B22F86E
S31502002A40103032F8102012B181F3108870474EF21E
S31502002A50FA3243F6F80CC4F20102C0F2002C1388D3
S31502002A603CF8100043F4254323EA0000108081F36A
S31502002A7010887047D4D4D4D410B5EFF31081012254
S31502002A8082F3108848F2C052C2F2002232F81030A5
S31502002A9083B94EF2FA3E43F6F80CC4F2010EC0F2C6
S31502002AA0002CBEF800403CF81030234343F4254383
S31502002AB0AEF8003032F81030013322F8103081F3CC
S31502002AC0108810BDD4D4D4D470B543F6504504460C
S31502002AD0C4F2000500BF00BF287808B12FF005C078
S31502002AE04FF0870025F82C0C4FF0100005F8500C1B
S31502002AF08CB10020FFF7C0FF4EF253000126C4F24C
S31502002B00010006700020FFF78BFF05F8306C00BF4E
S31502002B1028780007FCD4012005F84E0C002005F8A1
S31502002B204F0C00BF00BF00BF287808B12FF005C0C8
S31502002B3042F20350C0F20500C4B14FF40C7125F8FD
S31502002B40081C00BF00BF00BF2978C907FCD145F8A1
S31502002B500C0C012005F8100C47F2A83125F83C1C94
S31502002B6005F83A0C112005F8500C70BD45F80C0C0E
S31502002B70012005F8100C47F2A83125F83C1C05F88F
S31502002B803A0C00BF00BF00BF15F8500CC007FBD1BE
S31502002B90287808B12FF009C0012005F8400C70BD55
S31502002BA000F00AF8FDF76CFFFEE7D4D4D4D4D4D4EF
S31502002BB000BE7047D4D4D4D42DE9F0474EF614554E
S31502002BC040F20120CEF20005C0F20E004EF20004E1
S31502002BD02860CEF20104BFF34F8FBFF36F8F55F813
S31502002BE0141CC1F3035001285FEA1F9211F00F0F64
S31502002BF05FEA0F911142216811D102280FD241F0EA
S31502002C00040020604EF20800BFF34F8FCEF20000A0
S31502002C10BFF36F8F016841F48031016002E021F059
S31502002C2004002060BFF34F8FBFF36F8F4FF4700025
S31502002C3040F2000168670020C0F2002145F80C1C32
S31502002C400026FDF709FFFFF7A3FB4EF2FA304EF618
S31502002C50B022C4F20100C4F201024AF2025101801A
S31502002C6016704FF4254101800120FDF7F5FE40F272
S31502002C702000C2F2002080F30A882068800723D54C
S31502002C8055F80C0CB0F1007F1ED120694FF400718B
S31502002C90C0F3C300626901FA00F3C2F3C3008140C4
S31502002CA00020DA08CB080146074642F005C800BFF5
S31502002CB0E7E802010FF005C04FF0005243F005C0ED
S31502002CC0E2E802010FF005C043F2CC68C0F2002828
S31502002CD0D8F800708FB1D8F804003E46041D03E010
S31502002CE0013E04F10C0408D060790028F8D154E9B9
S31502002CF00101091A00F051F9F2E7D8F80890B9F182
S31502002D00000F13D0D8F80C004E4600F1080403E079
S31502002D10013E04F1100409D060790028F8D154E983
S31502002D2002022168121A00F03DF9F1E7FFF7D8FA1C
S31502002D30FFF7A6FD0320FFF79FFE4FF00E0E40F6AB
S31502002D403050C4F24000002120F8041B0FF005C0E9
S31502002D500320FFF765FE0320FFF78EFE44F2040010
S31502002D600021C4F22000016041608160C16003203D
S31502002D70FFF756FED8F810A0D5F8AC104422BAF1E7
S31502002D80000F62F30701C5F8AC1025D0D8F814106D
S31502002D9000234FF0200E4FF0010C002404E000BF88
S31502002DA00134E3B29A4517D901EBC30251F83360F5
S31502002DB0526822F01F02203A0EEB5210B0EB561F59
S31502002DC0EED942F001006CF30406C5F88430C5F86A
S31502002DD08860C5F88C00E3E7BFF35F8F0520C5F86E
S31502002DE08000286940F480302861BFF34F8FBFF31B
S31502002DF06F8F2868C0032DD400202867BFF34F8F3A
S31502002E00E96E43F6E073C1F34E30CA08C1F3C90155
S31502002E104E1C9107420100BF02EA030446F001E09C
S31502002E200C4400BF00BF00BFC5F84C4204F1404449
S31502002E300FF007C00028A0F10100A2F12002EBD199
S31502002E40BFF34F8F286840F480302860BFF34F8F5E
S31502002E50BFF36F8F4EF21014C4F20104D4F8C80205
S31502002E60800714D42078A0B10120FFF705FE00BF29
S31502002E7094F9000010F1410FFADC0020207000BF27
S31502002E8020783F28FCD80120FFF7CAFD01E0D4F8DC
S31502002E90C802D4F8C802400715D42079A8B1012087
S31502002EA0FFF7EAFD00BF00BF94F9040010F1410FDD
S31502002EB0FADC0020207100BF20793F28FCD80120CF
S31502002EC0FFF7AEFD01E0D4F8C8020220FDF7C4FD0B
S31502002ED0A7B1D8F804004FF48076041D04E000BFC1
S31502002EE0013F04F10C0409D06079B6EB002FF7D14B
S31502002EF054E90101091A00F050F8F1E7B9F1000F9F
S31502002F0016D0D8F80C004FF4807700F1080404E0DC
S31502002F10B9F1010904F110040AD06079B7EB002F68
S31502002F20F6D154E902022168121A00F03BF8EFE7E3
S31502002F3048F2D454C2F20024204600F0F6F82046A5
S31502002F4000F00BF9BFF34F8FBFF36F8F0020C5F868
S31502002F503C0243F6521043F65211C0F20020C0F270
S31502002F600021BFF34F8F081ABFF36F8F8410012C15
S31502002F700BDB43F65215C0F2002500BF00BF00BFAF
S31502002F8055F8040B8047013CFAD1FFF731FD0020CA
S31502002F90BDE8F04700F000B870470A46002100F08D
S31502002FA077B8D4D4844641EA000313F0030349D127
S31502002FB0403A23D30B6803604B6843608B68836097
S31502002FC0CB68C3600B6903614B6943618B6983619B
S31502002FD0CB69C3610B6A03624B6A43628B6A836283
S31502002FE0CB6AC3620B6B03634B6B43638B6B83636B
S31502002FF0CB6BC36340304031403ADBD230320BD325
S315020030000B6803604B6843608B688360CB68C36060
S3150200301010301031103AF3D20C3205D351F8043B7A
S3150200302040F8043B043AF9D2043208D0D2071CBF56
S3150200303011F8013B00F8013B01D30B88038060467F
S31502003040704700BF082A13D38B07B1D010F00303D1
S31502003050AED0C3F10403D21ADB071CBF11F8013B41
S3150200306000F8013BA4D331F8023B20F8023B9FE76C
S31502003070043AD9D3013A11F8013B00F8013BF9D2DF
S315020030800B7803704B7843708B7883706046704779
S3150200309070B4840746D0541E002A41D0CDB20346EE
S315020030A002E0621EE4B3144603F8015B9A07F8D104
S315020030B0032C2ED9CDB245EA05250F2C45EA054546
S315020030C019D9264603F11002103E0F2E42F8105C63
S315020030D042F80C5C42F8085C42F8045C02F1100209
S315020030E0F2D8A4F1100222F00F0204F00F041032FB
S315020030F0032C13440DD91E462246121F032A46F8F4
S31502003100045BFAD8221F22F00302121D134404F0B4
S3150200311003042CB1C9B21C4403F8011BA342FBD120
S3150200312070BC704714460346C2E710B540F26E0102
S3150200313040F20002C0F20021C0F200020446FFF78C
S3150200314031FF40F2000040F20001C0F20000C0F27E
S3150200315000012044FFF721FF10BD40F20801C0F232
S315020031600001401A48F2D051C2F2002108607047AD
S315020031700000000000005454522052454747455370
S31502003180000D0A2A2A20525F4750545F496E666F25
S3150200319047657420415049206661696C6564202A3E
S315020031A02A0D0A00284E554C4C29000D0A2A2A20BF
S315020031B0525F4750545F447574794379636C655323
S315020031C0657420415049206661696C6564202A2A2B
S315020031D00D0A000D0A2A2A20525F4750545F4F708B
S315020031E0656E20415049204641494C4544202A2AD1
S315020031F00D0A004750542074696D6572207374611C
S3150200320072746564207375636365737366756C6C3B
S31502003210792E0D0A004750542074696D6572206438
S31502003220757479206379636C652073657420737590
S31502003230636365737366756C6C792E0D0A0047506D
S31502003240542074696D657220696E697469616C696E
S315020032507A6564207375636365737366756C6C79DE
S315020032602E0D0A000D0A2A2A20525F4750545F5338
S315020032707461727420415049206661696C656420EC
S315020032802A2A0D0A0048656C6C6F20576F726C64AF
S31502003290210A005465726D696E616C000D0A5B4508
S315020032A052525D20496E2046756E6374696F6E3A9E
S315020032B020257328292C202573007365745F746991
S315020032C06D65725F647574795F6379636C650073AB
S315020032D0746172745F6770745F74696D6572006998
S315020032E06E69745F6770745F74696D657200303100
S315020032F03233343536373839414243444546D4D4DD
S31502003300048500224C3600027036000200000100DD
S3150200331000000000000000000000000000000000A5
S315020033200000000000000000000000000000FFFF97
S31502003330FFFFFFFFDFDFDFDFDFDF0000000000004F
S315020033400000000000000000000000000000000075
S315020033500000000000000000000000000000000065
S315020033600000000002000000E80300000000000068
S31502003370F401000006FFDF0000000000000000006C
S315020033800C3300020008011C000100000008011CA9
S31502003390010100000008011C030100000004011CD9
S315020033A0070100001040000008010000040C0000A4
S315020033B00A010000000C01150B010000000C010BB4
S315020033C00C010000000C010B0D010000000C010BAA
S315020033D00E010000000C010B0F010000004000006E
S315020033E0000200001040000001020000000001057A
S315020033F0080200000004010509020000000801009D
S315020034000A020000000001000B0200000000010099
S315020034100C020000000001000D0200000000010085
S315020034200E020000000001000F020000000C010B5A
S3150200343000030000000C010B01030000000C010B4D
S315020034400203000010400000030300000000011305
S3150200345007040000000401130804000040040107E9
S3150200346009040000400401070A040000000C010BD5
S3150200347003050000000C010B04050000000C010B03
S3150200348005050000000C010B06050000000C010BEF
S3150200349007050000000C010B08050000000C010BDB
S315020034A009050000000C010B0A05000004040000D7
S315020034B006060000000C010B07060000000C010BBB
S315020034C008060000000C010B09060000000C010BA7
S315020034D00A060000000C010B0B060000000C010B93
S315020034E00C060000000C010B0D060000000C010B7F
S315020034F00E060000000C010B0F0600000008011C5E
S31502003500030800000008011C08080000000C010B5B
S315020035100D080000000C01130E080000000C011338
S315020035200F080000000C010B000A0000000C010B42
S31502003530010A0000000C010B020A0000000C010B3C
S31502003540030A0000000C010B040A0000000C010B28
S31502003550050A0000000C010B060A0000000C010B14
S31502003560080A0000000C010B090A0000000C010BFE
S315020035700A0A0000000C010B0B0A0000000C010BEA
S315020035800C0A0000000C010B0D0A0000000C010BD6
S315020035900E0A00000008010B0F0A0000000C010BC6
S315020035A0000C0000000C010B010C0000000C010BCA
S315020035B0020C0000000C010B030C0000000C010BB6
S315020035C0040C0000000C010B050C0000000C010BA2
S315020035D0060C0000000C010B070C0000000C010B8E
S315020035E0080C0000000C010B090C0000000C010B7A
S315020035F00A0C0000000C010B0B0C0000000C010B66
S315020036000C0C0000000C010B0D0C0000000C010B51
S315020036100E0C0000000C010B000D0000000C011541
S31502003620010D0000000C0115020D0000000C011531
S31502003630030D0000000C0115040D00000008011521
S31502003640050D000010000115070D000059000000CD
S315020036508433000200000000A100A200A300A4001F
S3150200366095038F0390039103820383038403D4D4C7
S31502003670310D0002490D0002590D0002690D0002CA
S31502003680290E0002590E0002A10E0002C90E000206
S31502003690010F0002310F0002510F0002790F0002E2
S315020036A0910F0002020403040404D4D4000000684B
S315020036B0000000680000008000000080000000702A
S315020036C00000007020000022200000220B000000F3
S315020036D0E436000219000000683700020400000008
S315020036E0AC36000200000068000000680001000D10
S315020036F000000068000000680001000D0000008064
S315020037000000008000010008000000800000008028
S315020037100001000800000070000000700001000AAD
S3150200372000000070000000700001000A00000000A6
S31502003730000000000100000500000020000000203B
S3150200374001000004200000222000002200000003E5
S315020037504C800022D485002200000003D48500227A
S31502003760D485002200000003000000680000006803
S31502003770000000900001090D0000006800000068CA
S315020037800000007800010B0D0000006800000068D0
S31502003790000000270001020D00000068000000681A
S315020037A06C0000020001010D000000800000008094
S315020037B0000000900001090800000080000000805F
S315020037C00000007800010B08000000800000008065
S315020037D000000027000102080000008000000080AF
S315020037E06C00000200010108000000700000007079
S315020037F0000000900001090A00000070000000703D
S315020038000000007800010B0A000000700000007042
S31502003810000000270001020A00000070000000708C
S315020038206C0000020001010A000000000000000016
S3150200383000000090010109050000000000000000E0
S315020038400000007801010B050000000000000000E6
S315020038500000002701000205000000000000000031
S315020038606C0000020100010500000020000000209B
S315020038700000009001010904000000200000002061
S315020038800000007801010B04000000200000002067
S3150200389000000027010002040000002000000020B2
S315020038A06C00000201000104000000220000002258
S315020038B0000000900001090300000022000000221F
S315020038C00000007800010B03000000220000002225
S315020038D0000000270000020300000022020000226E
S315020038E06C00000200000103D4850022D485002268
S315020038F06E00000200000103010002000800100031
S315020039002000D4D400000406362E342E3000427530
S31502003910696C7420776974682052656E6573617389
S3150200392020416476616E63656420466C65786962DF
S315020039306C6520536F667477617265205061636BA4
S315020039406167652076657273696F6E20362E342E36
S3070200395030003D
S30902C9F040FFFFFFFFFF
S30902C9F044EFFFFFFF0B
S30902C9F0C0FFFFFFFD81
S30902C9F0C4FFFFFFFF7B
S30902C9F120000000001A
S30902C9F1240000000016
S70502002BA12C
